:020000040800F2
:10000000000003203D7A00086533000875330008BE
:100010008D33000893330008993300080000000076
:100020000000000000000000000000009F330008F6
:10003000AD33000800000000BB330008C9330008DE
:10004000917A0008917A0008917A0008D533000867
:10005000917A0008917A000863340008713400082E
:10006000917A0008917A000855340008917A0008C6
:10007000917A0008917A0008E1330008917A00082B
:10008000917A0008917A0008917A0008917A000824
:10009000917A0008917A0008917A0008917A000814
:1000A000917A0008917A0008917A0008917A000804
:1000B000917A0008917A0008917A0008917A0008F4
:1000C000917A0008917A0008917A0008917A0008E4
:1000D000F533000809340008917A0008917A000885
:1000E000917A0008917A0008917A0008917A0008C4
:1000F0001D3400082934000835340008917A0008BE
:10010000917A0008917A0008917A0008917A0008A3
:10011000917A0008917A0008917A0008917A000893
:10012000917A0008917A000841340008917A000819
:0C013000917A0008917A0008917A00088A
:1001400010B5054C237833B9044B13B10448AFF311
:1001500000800123237010BDFC020020000000007D
:1001600044CF020808B5034B1BB103490348AFF362
:10017000008008BD000000000003002044CF0208FA
:1001800001F0FF01102A2BDB10F0070F08D010F848
:10019000013B013A8B422DD010F0070F42B3F6D14C
:1001A000F0B441EA012141EA014122F007047FF065
:1001B00000070023F0E80256083C85EA010586EABC
:1001C000010685FA47F5A3FA87F586FA47F6A5FAF8
:1001D00087F68EB9EED1F0BC01F0FF0102F0070204
:1001E00032B110F8013B013A83EA010313B1F8D1AF
:1001F0000020704701387047002D06BF3546033890
:10020000073815F0010F07D1013015F4807F02BFC8
:10021000013015F4C03F0130F0BC0138704700BF19
:10022000034613F8012B002AFBD1181A0138704736
:1002300081F0004102E000BF83F0004330B54FEA97
:1002400041044FEA430594EA050F08BF90EA020F04
:100250001FBF54EA000C55EA020C7FEA645C7FEA97
:10026000655C00F0E2804FEA5454D4EB5555B8BFBA
:100270006D420CDD2C4480EA020281EA030382EA2B
:10028000000083EA010180EA020281EA0303362DBD
:1002900088BF30BD11F0004F4FEA01314FF4801C90
:1002A0004CEA113102D0404261EB410113F0004FA2
:1002B0004FEA03334CEA133302D0524263EB430359
:1002C00094EA050F00F0A780A4F10104D5F1200EF7
:1002D0000DDB02FA0EFC22FA05F2801841F1000152
:1002E00003FA0EF2801843FA05F359410EE0A5F126
:1002F00020050EF1200E012A03FA0EFC28BF4CF057
:10030000020C43FA05F3C01851EBE37101F000450C
:1003100007D54FF0000EDCF1000C7EEB00006EEB19
:100320000101B1F5801F1BD3B1F5001F0CD34908A3
:100330005FEA30004FEA3C0C04F101044FEA4452FA
:1003400012F5800F80F09A80BCF1004F08BF5FEA81
:10035000500C50F1000041EB045141EA050130BD61
:100360005FEA4C0C404141EB0101013C28BFB1F573
:10037000801FE9D291F0000F04BF01460020B1FABE
:1003800081F308BF2033A3F10B03B3F120020CDA91
:100390000C3208DD02F1140CC2F10C0201FA0CF06F
:1003A00021FA02F10CE002F11402D8BFC2F1200CD4
:1003B00001FA02F120FA0CFCDCBF41EA0C0190408A
:1003C000E41AA2BF01EB0451294330BD6FEA0404D3
:1003D0001F3C1CDA0C340EDC04F11404C4F12002BE
:1003E00020FA04F001FA02F340EA030021FA04F3D0
:1003F00045EA030130BDC4F10C04C4F1200220FA27
:1004000002F001FA04F340EA0300294630BD21FA64
:1004100004F0294630BD94F0000F83F4801306BF2A
:1004200081F480110134013D4EE77FEA645C18BF1E
:100430007FEA655C29D094EA050F08BF90EA020FB5
:1004400005D054EA000C04BF1946104630BD91EAAD
:10045000030F1EBF0021002030BD5FEA545C05D1B0
:100460004000494128BF41F0004130BD14F58004EF
:100470003CBF01F5801130BD01F0004545F0FE4163
:1004800041F470014FF0000030BD7FEA645C1ABF98
:10049000194610467FEA655C1CBF0B46024650EACF
:1004A000013406BF52EA033591EA030F41F40021FB
:1004B00030BD00BF90F0000F04BF0021704730B581
:1004C0004FF4806404F132044FF000054FF0000156
:1004D00050E700BF90F0000F04BF0021704730B517
:1004E0004FF4806404F1320410F0004548BF4042EC
:1004F0004FF000013EE700BF42004FEAE2014FEA41
:1005000031014FEA02701FBF12F07F4393F07F4F1B
:1005100081F06051704732F07F4208BF704793F01E
:100520007F4F04BF41F40021704730B54FF4607431
:1005300001F0004521F000411CE700BF50EA010234
:1005400008BF704730B54FF000050AE050EA0102DD
:1005500008BF704730B511F0004502D5404261EB4D
:1005600041014FF4806404F132045FEA915C3FF48E
:10057000D8AE4FF003025FEADC0C18BF03325FEA2B
:10058000DC0C18BF033202EBDC02C2F1200300FADC
:1005900003FC20FA02F001FA03FE40EA0E0021FA01
:1005A00002F11444BDE600BF70B54FF0FF0C4CF4EF
:1005B000E06C1CEA11541DBF1CEA135594EA0C0FA1
:1005C00095EA0C0F00F0DEF82C4481EA030621EADC
:1005D0004C5123EA4C5350EA013518BF52EA033517
:1005E00041F4801143F4801338D0A0FB02CE4FF0C9
:1005F0000005E1FB02E506F00042E0FB03E54FF0F9
:100600000006E1FB03569CF0000F18BF4EF0010EF0
:10061000A4F1FF04B6F5007F64F5407404D25FEAEC
:100620004E0E6D4146EB060642EAC62141EA55519F
:100630004FEAC52040EA5E504FEACE2EB4F1FD0CE1
:1006400088BFBCF5E06F1ED8BEF1004F08BF5FEA5F
:10065000500E50F1000041EB045170BD06F0004611
:1006600046EA010140EA020081EA0301B4EB5C04BE
:10067000C2BFD4EB0C0541EA045170BD41F48011B6
:100680004FF0000E013C00F3AB8014F1360FDEBFDB
:10069000002001F0004170BDC4F10004203C35DAB7
:1006A0000C341BDC04F11404C4F1200500FA05F33A
:1006B00020FA04F001FA05F240EA020001F00042DB
:1006C00021F0004110EBD37021FA04F642EB060151
:1006D0005EEA430E08BF20EAD37070BDC4F10C047B
:1006E000C4F1200500FA04F320FA05F001FA04F23F
:1006F00040EA020001F0004110EBD37041F100012B
:100700005EEA430E08BF20EAD37070BDC4F1200535
:1007100000FA05F24EEA020E20FA04F301FA05F29D
:1007200043EA020321FA04F001F0004121FA04F245
:1007300020EA020000EBD3705EEA430E08BF20EA15
:10074000D37070BD94F0000F0FD101F0004640004F
:1007500041EB010111F4801F08BF013CF7D041EAD1
:10076000060195F0000F18BF704703F000465200D5
:1007700043EB030313F4801F08BF013DF7D043EAA6
:100780000603704794EA0C0F0CEA135518BF95EA5C
:100790000C0F0CD050EA410618BF52EA4306D1D1E3
:1007A00081EA030101F000414FF0000070BD50EA02
:1007B000410606BF1046194652EA430619D094EA8C
:1007C0000C0F02D150EA013613D195EA0C0F05D176
:1007D00052EA03361CBF104619460AD181EA0301CA
:1007E00001F0004141F0FE4141F470014FF0000082
:1007F00070BD41F0FE4141F4780170BD70B54FF01D
:10080000FF0C4CF4E06C1CEA11541DBF1CEA13559C
:1008100094EA0C0F95EA0C0F00F0A7F8A4EB05047E
:1008200081EA030E52EA03354FEA013100F0888075
:100830004FEA03334FF0805545EA131343EA12633E
:100840004FEA022245EA111545EA10654FEA0026F3
:100850000EF000419D4208BF964244F1FD0404F5AC
:10086000407402D25B084FEA3202B61A65EB030508
:100870005B084FEA32024FF480104FF4002CB6EBC5
:10088000020E75EB030E22BFB61A754640EA0C0045
:100890005B084FEA3202B6EB020E75EB030E22BF85
:1008A000B61A754640EA5C005B084FEA3202B6EBC6
:1008B000020E75EB030E22BFB61A754640EA9C0085
:1008C0005B084FEA3202B6EB020E75EB030E22BF55
:1008D000B61A754640EADC0055EA060E18D04FEA13
:1008E000051545EA16754FEA06164FEAC30343EAB3
:1008F00052734FEAC2025FEA1C1CC0D111F4801F80
:100900000BD141EA00014FF000004FF0004CB6E778
:1009100011F4801F04BF01430020B4F1FD0C88BF17
:10092000BCF5E06F3FF6AFAEB5EB030C04BFB6EB22
:10093000020C5FEA500C50F1000041EB045170BD15
:100940000EF0004E4EEA113114EB5C04C2BFD4EB42
:100950000C0541EA045170BD41F480114FF0000EC6
:10096000013C90E645EA060E8DE60CEA135594EA42
:100970000C0F08BF95EA0C0F3FF43BAF94EA0C0F45
:100980000AD150EA01347FF434AF95EA0C0F7FF4BA
:1009900025AF104619462CE795EA0C0F06D152EA0E
:1009A00003353FF4FDAE1046194622E750EA4106F2
:1009B00018BF52EA43067FF4C5AE50EA41047FF403
:1009C0000DAF52EA43057FF4EBAE12E74FF0FF3C68
:1009D00006E000BF4FF0010C02E000BF4FF0010C39
:1009E0004DF804CD4FEA410C7FEA6C5C4FEA430CB2
:1009F00018BF7FEA6C5C1BD001B050EA410C0CBF01
:100A000052EA430C91EA030F02BF90EA020F002062
:100A1000704710F1000F91EA030F58BF994208BFC9
:100A200090422CBFD8176FEAE37040F00100704786
:100A30004FEA410C7FEA6C5C02D150EA013C07D1DD
:100A40004FEA430C7FEA6C5CD6D152EA033CD3D028
:100A50005DF8040B704700BF8446104662468C4622
:100A60001946634600E000BF01B5FFF7B7FF002855
:100A700048BF10F1000F01BD4DF808EDFFF7F4FF7E
:100A80000CBF012000205DF808FB00BF4DF808ED09
:100A9000FFF7EAFF34BF012000205DF808FB00BF2C
:100AA0004DF808EDFFF7E0FF94BF012000205DF84E
:100AB00008FB00BF4DF808EDFFF7CEFF94BF012003
:100AC00000205DF808FB00BF4DF808EDFFF7C4FFFC
:100AD00034BF012000205DF808FB00BF4FEA410C45
:100AE0007FEA6C5C02D150EA013C0AD14FEA430C28
:100AF0007FEA6C5C02D152EA033C02D14FF0000065
:100B000070474FF0010070474FEA410212F50012A2
:100B100015D211D56FF47873B3EB625212D94FEA44
:100B2000C12343F0004343EA505311F0004F23FA2E
:100B300002F018BF404270474FF00000704750EA83
:100B4000013005D111F0004008BF6FF00040704740
:100B50004FF00000704700BF4FEA4102B2F1E0439E
:100B600024BFB3F5001CDCF1FE5C0DD901F0004C94
:100B70004FEAC0024CEA5070B2F1004F40EB8300E4
:100B800008BF20F00100704711F0804F21D113F110
:100B90003872BCBF01F00040704741F480114FEA49
:100BA0005252C2F11802C2F1200C10FA0CF320FAD2
:100BB00002F018BF40F001004FEAC1234FEAD323EF
:100BC00003FA0CFC40EA0C0023FA02F34FEA430359
:100BD000CCE77FEA625307D150EA01331EBF4FF0E2
:100BE000FE4040F44000704701F0004040F0FE40FD
:100BF00040F40000704700BF53B94AB9002908BF4C
:100C000000281CBF4FF0FF314FF0FF3000F074B9E7
:100C1000ADF1080C6DE904CE00F006F8DDF804E053
:100C2000DDE9022304B070472DE9F047089D044632
:100C30008E46002B4DD18A42944669D9B2FA82F28F
:100C400052B101FA02F3C2F1200120FA01F10CFACB
:100C500002FC41EA030E94404FEA1C48210CBEFB03
:100C6000F8F61FFA8CF708FB16E341EA034306FB8C
:100C700007F199420AD91CEB030306F1FF3080F01B
:100C80001F81994240F21C81023E63445B1AA4B268
:100C9000B3FBF8F008FB103344EA034400FB07F70A
:100CA000A7420AD91CEB040400F1FF3380F00A814B
:100CB000A74240F207816444023840EA0640E41B40
:100CC00000261DB1D4400023C5E900433146BDE8EC
:100CD000F0878B4209D9002D00F0EF800026C5E98E
:100CE000000130463146BDE8F087B3FA83F6002EA6
:100CF0004AD18B4202D3824200F2F980841A61EB1E
:100D0000030301209E46002DE0D0C5E9004EDDE73B
:100D100002B9FFDEB2FA82F2002A40F09280A1EB23
:100D20000C014FEA1C471FFA8CFE0126200CB1FB78
:100D3000F7F307FB131140EA01410EFB03F0884271
:100D400008D91CEB010103F1FF3802D2884200F2FE
:100D5000CB804346091AA4B2B1FBF7F007FB101190
:100D600044EA01440EFB00FEA64508D91CEB04042E
:100D700000F1FF3102D2A64500F2BB800846A4EB89
:100D80000E0440EA03409CE7C6F12007B34022FA74
:100D900007FC4CEA030C20FA07F401FA06F31C43A3
:100DA000F9404FEA1C4900FA06F3B1FBF9F8200CB0
:100DB0001FFA8CFE09FB181140EA014108FB0EF0F6
:100DC000884202FA06F20BD91CEB010108F1FF3A46
:100DD00080F08880884240F28580A8F10208614452
:100DE000091AA4B2B1FBF9F009FB101144EA014160
:100DF00000FB0EFE8E4508D91CEB010100F1FF340B
:100E00006CD28E456AD90238614440EA0840A0FBA2
:100E10000294A1EB0E01A142C846A64656D353D078
:100E20005DB1B3EB080261EB0E0101FA07F722FA9C
:100E300006F3F1401F43C5E9007100263146BDE8C5
:100E4000F087C2F12003D8400CFA02FC21FA03F328
:100E5000914001434FEA1C471FFA8CFEB3FBF7F0A9
:100E600007FB10360B0C43EA064300FB0EF69E42CE
:100E700004FA02F408D91CEB030300F1FF382FD267
:100E80009E422DD9023863449B1B89B2B3FBF7F60F
:100E900007FB163341EA034106FB0EF38B4208D9E8
:100EA0001CEB010106F1FF3816D28B4214D9023E29
:100EB0006144C91A46EA004638E72E46284605E747
:100EC0000646E3E61846F8E64B45A9D2B9EB020818
:100ED00064EB0C0E0138A3E74646EAE7204694E7A8
:100EE0004046D1E7D0467BE7023B614432E73046DB
:100EF00009E76444023842E7704700BF80B483B01A
:100F000000AF7860064BD3F8902005497B68134307
:100F1000C1F8903000BF0C37BD465DF8047B7047C8
:100F20000008005880B485B000AF78604FF0B0433F
:100F3000DA6C4FF0B0417B681343CB644FF0B043A1
:100F4000DA6C7B681340FB60FB6800BF1437BD465A
:100F50005DF8047B704780B485B000AF78604FF0D7
:100F6000B043D3F84C214FF0B0417B681343C1F834
:100F70004C314FF0B043D3F84C217B681340FB60F9
:100F8000FB6800BF1437BD465DF8047B704780B531
:100F900000AF06F097FF06F09BFF4FF48030FFF79D
:100FA000ADFF15F0FBFB00F021F800F0C3F800BF27
:100FB00080BD0000B0B588B000AF0B4B3C1D1D4696
:100FC0000FCD0FC495E8070003C422800234130C30
:100FD000237015F01FFB3B1D184614F097FD00BF52
:100FE0002037BD46B0BD00BFD8CF020880B588B05D
:100FF00000AF3B1D00221A605A609A60DA601A61E5
:101000000023BB8300237B8300233B830023FB77E8
:1010100038E0FB7F444ADB0013449B79002B2BD044
:10102000FB7F414A52F83330404A93421BD03F4A3B
:10103000934223D8B3F1904F03D03D4A934209D055
:101040001CE0FB7F384ADB0013449A88BB8B1343B8
:10105000BB8314E0FB7F344ADB0013449A887B8B0C
:1010600013437B830BE0FB7F2F4ADB0013449A88FA
:101070003B8B13433B8302E000BF00E000BFFB7FDC
:101080000133FB77FB7F252BC3D90023FB600123B2
:10109000BB6003233B61BB8B002B14D0BB8B7B60FD
:1010A0000120FFF73FFF0120FFF755FF3B1D1946C9
:1010B0004FF0904007F01AFEBB8B002219464FF00C
:1010C000904007F09BFF7B8B002B12D07B8B7B60CB
:1010D0000220FFF727FF0220FFF73DFF3B1D1946C7
:1010E000134807F003FE7B8B00221946104807F0D7
:1010F00085FF3B8B002B13D03B8B7B600420FFF7DD
:1011000011FF0420FFF727FF3B1D1946074807F092
:10111000EDFD3B8B00221946044807F06FFF00BF2E
:1011200000BF2037BD4680BD642603080008004884
:101130000004004880B400AF00BFBD465DF8047BEA
:10114000704780B500AF002001F075FC00BF80BD86
:1011500080B584B000AFF8600B467A607B817A89F5
:101160007B68F968002001F09BFC00BF1037BD468A
:1011700080BD000080B483B000AF7860064BD3F828
:10118000902005497B681343C1F8903000BF0C37AD
:10119000BD465DF8047B70470008005880B483B0FA
:1011A00000AF7860074BD3F8803023F00702054981
:1011B0007B681343C1F8803000BF0C37BD465DF833
:1011C000047B70470004005880B483B000AF78609F
:1011D0004FF0B0430A4AC3F89C204FF0B043D3F815
:1011E0009C3023F47C527B681B024FF0B0411343C8
:1011F000C1F89C3000BF0C37BD465DF8047B7047DA
:10120000FECAFECA80B483B000AF78604FF0B0432E
:101210009B6823F400424FF0B0417B6813438B601E
:1012200000BF0C37BD465DF8047B704780B400AF4B
:101230004FF0B043D3F890304FF0B04243F48033D6
:10124000C2F8903000BFBD465DF8047B704780B4A3
:1012500000AF4FF0B043D3F890304FF0B04223F4DA
:101260008033C2F8903000BFBD465DF8047B704704
:1012700080B400AF4FF0B043D3F8943003F08063F4
:10128000B3F1806F01D1012300E000231846BD4671
:101290005DF8047B704780B400AF4FF0B043D3F8E3
:1012A000943003F08053B3F1805F01D1012300E05B
:1012B00000231846BD465DF8047B704780B485B0B6
:1012C00000AF78604FF0B0431A6D4FF0B0417B68CB
:1012D00013430B654FF0B0431A6D7B681340FB60FE
:1012E000FB6800BF1437BD465DF8047B7047000003
:1012F00080B400AF044B1B68C3F30B031846BD4614
:101300005DF8047B704700BF002004E080B400AFAC
:10131000044B1B681B0C9BB21846BD465DF8047B52
:10132000704700BF002004E080B483B000AF786055
:1013300039607B685A683B681B041A437B685A60B3
:1013400000BF0C37BD465DF8047B704780B483B0A6
:1013500000AF786039607B685A683B681A437B68E5
:101360005A6000BF0C37BD465DF8047B704780B4FF
:1013700083B000AF786039607B685A693B681B04B2
:101380001A437B685A6100BF0C37BD465DF8047B89
:10139000704780B483B000AF786039607B685A6969
:1013A0003B681A437B685A6100BF0C37BD465DF845
:1013B000047B704780B483B000AF786039607B688D
:1013C0003A689A6000BF0C37BD465DF8047B7047F1
:1013D00080B483B000AF786039607B683A689A6106
:1013E00000BF0C37BD465DF8047B704780B400AF8A
:1013F000054B1B69044A23F00403136100BFBD467B
:101400005DF8047B704700BF00ED00E080B483B05E
:1014100000AF78607B68FF225A6200BF0C37BD4680
:101420005DF8047B704780B483B000AF78607B6860
:10143000CA225A627B6853225A6200BF0C37BD46EB
:101440005DF8047B704780B483B000AF786039608A
:101450007B689B6823F007023B681A437B689A60AD
:1014600000BF0C37BD465DF8047B704780B500AF08
:10147000044B4FF400421A6100F054F800F094F865
:1014800000BF80BD0040005880B582B000AF194B4E
:10149000D3F880301B0303F47F2303F100637B60E8
:1014A00000F096F800F0AEF81349002001F058F86B
:1014B000FFF76DFD0121012015F058FA00F004FA44
:1014C00000F00FFA7B68A3F500531A460B4B1A6025
:1014D0007B68A3F540531A46094B1A607B68A3F555
:1014E00080431A46074B1A6000F09AF800BF08378D
:1014F000BD4680BD00400058D04300204844002035
:101500004C4400205044002080B400AF00BFBD46D2
:101510005DF8047B704780B500AF5020FFF72AFECE
:1015200000BF80BD80B500AF00F004F800F01AF8ED
:1015300000BF80BD80B500AFFFF79AFE0346002BC9
:101540000DD0FFF7A8FE0346002B08D107F030FEB0
:1015500007F02EFEFFF76AFEFFF779FE00BF00BF1F
:1015600080BD000080B500AF4FF48010FFF7A6FEED
:101570003F210C48FFF71EFF3F210A48FFF728FFD5
:101580003F210848FFF7D0FE3F210648FFF7EFFE56
:101590003F210448FFF7DAFE3F210248FFF7F9FE3A
:1015A00000BF80BD000C005880B582B000AF0020A5
:1015B00015F072F978607B68002B05D07B689B7909
:1015C0001846FFF701FE00BF00BF0837BD4680BDCB
:1015D00080B500AFFFF798FFFFF79DFF00F002F81E
:1015E00000BF80BD80B500AF0548FFF71CFF00219C
:1015F0000348FFF728FF0248FFF708FF00BF80BD40
:101600000028004080B500AF4FF40040FFF7FAFD1E
:1016100015F06AF90420FFF7C1FD00BF80BD00008E
:1016200080B588B000AF14F03FFE114A00214FF49E
:10163000806015F0C7FA0F4B3B600F4B7B603B4659
:1016400019460E4814F0F2FC0D4BBB600D4BFB60CD
:101650000D4B3B6140F23C537B6107F10803184698
:1016600014F064FF14F01AFE00BF2037BD4680BDA1
:1016700065600108340703208D160008A5160008D0
:101680004C09032040080320F801032080B483B0F4
:1016900000AF0346FB7100BF0C37BD465DF8047B0D
:1016A0007047000080B588B000AF78607B685B68E9
:1016B0000B33FB61FB691B889BB2A3F51243072B1D
:1016C00060D801A252F823F0E91600082B17000891
:1016D0003917000885170008551700086517000816
:1016E0006D1700087D17000807F10C03184614F069
:1016F00053FA3B7B19467B7B1A46BB7B244828F078
:101700002BF83B7C1946234828F026F8BB7D194668
:10171000FB7D1A463B7E204828F01EF81F4828F023
:101720001BF8786800F070F82DE01D4828F014F8D8
:10173000786800F043F826E01A4828F093F8FB692F
:1017400002331968FB6902335B681A46164828F0B1
:1017500003F818E0FB6902331B681946134827F0A9
:10176000FBFF10E0124827F0F7FF0CE0FB690233A3
:101770001B6819460F4827F0EFFF04E00E4827F0DA
:10178000EBFF00E000BF00BF2037BD4680BD00BFBB
:10179000F4CF020818D0020834D002084CD0020856
:1017A0006CD0020890D00208E0D0020808D10208EC
:1017B00044D1020868D10208A4D1020880B584B0DF
:1017C00000AF78607B685B680B33FB60FB680233BB
:1017D000BB60BB681B781946084827F0BDFFBB6893
:1017E0001B78002B03D1064828F03CF803E005489D
:1017F00028F038F800BF1037BD4680BDC8D10208B8
:10180000F8D1020834D2020880B58AB000AF7860FF
:1018100007F1080300221A605A609A60DA60002318
:101820007B6200233B627B685B680B33FB61FB6977
:101830000233BB61BB691B78002B28D11D4828F0FF
:1018400011F8FFF7B7FB0F233B727F23BB72FFF743
:101850005DFD7862796A184827F07EFF7B6A9BB24B
:10186000BB82FFF745FD3862396A144827F074FFE0
:101870003B6A9BB2FB8207F10803184614F076F925
:1018800001F0CAFE0021012015F070F80EE0BB69DE
:101890001B78012B06D10A4827F05EFF7B680022E7
:1018A0001A7003E0074827F057FF00BF2837BD46EE
:1018B00080BD00BF6CD2020888D20208ACD20208F8
:1018C000CCD2020800D3020880B500AF002006F099
:1018D000F9F8012006F0F6F8022006F0F3F800BF50
:1018E00080BD80B500AF0121002006F059F901212B
:1018F000012006F055F90121022006F051F900BF40
:1019000080BD80B584B000AF786006F0B7FAB860EB
:101910007B68FB60FB68B3F1FF3F0AD006F0C6FAB4
:1019200003461A46FB681344FB6002E0FFF75EFDC6
:1019300030BF06F0A3FA0246BB68D31AFA689A428F
:10194000F4D800BF00BF1037BD4680BD80B500AFE2
:101950004FF0FF3015F03AF800BF80BD80B400AF03
:1019600000BFBD465DF8047B704780B582B000AF14
:10197000786039604FF0FF3015F028F800BF083765
:10198000BD4680BD80B582B000AF786000214FF4C5
:10199000806015F039F900BF0837BD4680BD80B5BD
:1019A00082B000AF7860022015F09AF900BF0837C6
:1019B000BD4680BD80B582B000AF7860022015F0D2
:1019C000AFF900BF0837BD4680BD80B582B000AF1B
:1019D0000346FB80FB88102B04D10021402015F02A
:1019E00013F900E000BF00BF0837BD4680BD00000E
:1019F00080B400AF074B1B6903F40023B3F5002F3D
:101A000001D1012300E000231846BD465DF8047BA8
:101A1000704700BF0040005880B483B000AF7860CA
:101A200039607B683A68203253F82230054A934285
:101A300001D0012300E0002318460C37BD465DF8B5
:101A4000047B70470004008080B485B000AFF8606C
:101A5000B9607A607B6843F48061FB68BA6843F8D8
:101A6000221000BF1437BD465DF8047B704780B478
:101A700083B000AF786039607B683A6853F82230F1
:101A8000002B01D0012300E0002318460C37BD468F
:101A90005DF8047B7047000080B586B000AF7860C9
:101AA00039600023FB7300BF02211D48FFF7B4FF1C
:101AB0000346002BF8D106F083FF012014F03DF817
:101AC00000237B610AE07A687B691344184600F0C2
:101AD00071F80346FB737B6901337B617A693B686C
:101AE0009A4202D2FB7B002BEDD0FB7B002B05D072
:101AF0003A687B69D31A01333B610BE0002014F094
:101B00001CF806F07FFF002202210548FFF79CFF2A
:101B100000233B613B6918461837BD4680BD00BFB6
:101B20000014005880B588B000AFF860B9607A60E2
:101B30000023FB7500BF02211D48FFF76DFF034620
:101B4000002BF8D106F03CFF0023FB6111E0FB699C
:101B5000DA00FB68D118FB69DB00BA681344D3E9EB
:101B60000023084600F039F80346FB75FB69013392
:101B7000FB61FA697B689A4202D2FB7D002BE6D0BA
:101B8000FB7D002B05D07A68FB69D31A0133BB615A
:101B900008E006F037FF002202210548FFF754FF56
:101BA0000023BB61BB6918462037BD4680BD00BF1E
:101BB0000014005880B584B000AF78604FF0000288
:101BC0004FF000037968002000F01AF80346FB7319
:101BD000FB7B18461037BD4680BD80B586B000AF90
:101BE000F860C7E90023D7E90023F968012000F075
:101BF00007F80346FB75FB7D18461837BD4680BDC8
:101C000080B58EB000AFB960C7E900230346FB730F
:101C1000012387F8363002237B610123FB61BB6817
:101C2000BB6100BFFFF7E4FE0346002BFAD1EFF3E0
:101C30001083BB62BB6A3B6372B600BF06213648A5
:101C4000FFF715FF034687F82F3097F82F30002B4A
:101C500021D107213048FFF7DFFE034687F83730F0
:101C600097F83730002B16D1FB7B002B08D107F1FA
:101C7000200207F114031146184606F073FF05E031
:101C8000D7E90023B968012006F056FE002207219B
:101C90002148FFF7D9FE3B6B7B627B6A83F3108898
:101CA00000BF97F82F30002B06D0002000F038F846
:101CB000034687F8363009E097F83730002B05D017
:101CC000012000F02DF8034687F8363097F83730BA
:101CD000002B03D197F82F30002B03D097F8363024
:101CE000002B9ED100BF0D4B1B6903F48023B3F57D
:101CF000802FF8D097F83630002B03D0002387F8D8
:101D0000353002E0012387F8353097F83530184632
:101D10003837BD4680BD00BF001400580040005851
:101D200080B483B000AF0346FB71002318460C3724
:101D3000BD465DF8047B704780B483B000AF786027
:101D4000064BD3F8802005497B681343C1F88030E7
:101D500000BF0C37BD465DF8047B70470008005893
:101D600080B483B000AF7860054B1A6804497B6883
:101D700013430B6000BF0C37BD465DF8047B704712
:101D80000008005880B483B000AF0D4B9B6A9BB233
:101D90007B600B4B9B6A9BB23B6005E03B687B60C2
:101DA000074B9B6A9BB23B607A683B689A42F5D1CD
:101DB0003B6818460C37BD465DF8047B704700BF92
:101DC0000028004080B485B000AF03460A46FB718E
:101DD0001346BB71BA791D4913465B001344DB00FF
:101DE0000B4415331B78FB73FB7B062B09D0FA7B66
:101DF000164913465B001344DB000B441433FA7995
:101E00001A70FA79114913465B001344DB000B4446
:101E10001533FA7B1A70FA790C4913465B001344A8
:101E2000DB000B441433BA791A70BA7907491346A8
:101E30005B001344DB000B441533FA791A7000BFC2
:101E40001437BD465DF8047B704700BFF0400020AA
:101E500080B485B000AF03460A46FB711346BB71E0
:101E6000294B1B78DBB2BA799A4232D0BA7927492A
:101E700013465B001344DB000B4414331B78FB73E5
:101E8000FA7B224913465B001344DB000B441533F5
:101E9000FA791A70FA791D4913465B001344DB0086
:101EA0000B441533BA791A70FA79184913465B0056
:101EB0001344DB000B441433FA7B1A70BA791349CC
:101EC00013465B001344DB000B441433FA791A7099
:101ED00014E0FA790D4913465B001344DB000B4410
:101EE0001533BA791A70BA79084913465B0013445E
:101EF000DB000B441433FA791A7000BF1437BD4667
:101F00005DF8047B704700BF80410020F040002056
:101F100080B584B000AF0346FB714E4B1B78DBB23B
:101F2000062B18D14B4B1B78DAB24B4B1A70494A2F
:101F3000FB791370FA79494913465B001344DB00BF
:101F40000B44153306221A70454B4FF0FF321A60CE
:101F50000023FB8178E000F009F90346FB81FA7960
:101F60003E4913465B001344DB000B4408331968F9
:101F7000FB89FA791944394813465B001344DB00A6
:101F8000034408331960FA79344913465B0013445B
:101F9000DB000B4408331B68BB602E4B1B78DBB2A5
:101FA00019462E4A0B465B000B44DB0013440833F2
:101FB0001B68BA689A4237D3264B1B787B737A7BAF
:101FC000264913465B001344DB000B4415331B7892
:101FD0003B7313E07A7B214913465B001344DB001B
:101FE0000B4415331B787B737A7B1C4913465B00CB
:101FF0001344DB000B4415331B783B733B7B062BF0
:102000000BD03A7B154913465B001344DB000B44AD
:1020100008331B68BA689A42DCD27A7BFB79114696
:102020001846FFF7CFFE0FE00A4B1B78DAB2FB79B8
:1020300011461846FFF70CFF064B1B78DAB2064B29
:102040001A70044AFB791370FB8918461037BD4695
:1020500080BD00BF8041002081410020F040002071
:102060008441002080B485B000AF03460A46FB716E
:102070001346BB71394B1B78DBB2FA799A4211D106
:10208000364B1B78DAB2364B1A70FA79354913465B
:102090005B001344DB000B4415331B78DAB22F4B83
:1020A0001A703EE0FA792F4913465B001344DB00B7
:1020B0000B4414331B78FB73FA792A4913465B00EF
:1020C0001344DB000B4415331B78BB73F979FA7B9F
:1020D00024480B465B000B44DB00034415331B789C
:1020E000D8B2204913465B001344DB000B44153380
:1020F00002461A70BB7B062B13D0F979BA7B1948BC
:102100000B465B000B44DB00034414331B78D8B24E
:10211000144913465B001344DB000B44143302469E
:102120001A70FA790F4913465B001344DB000B4425
:102130000C3301221A70094B1B78DBB2062B07D136
:10214000BB79002B04D1084B4FF0FF321A6000BF5F
:1021500000BF1437BD465DF8047B70478041002006
:1021600081410020F04000208441002080B582B0F1
:1021700000AF1A4B1B68B3F1FF3F26D0FFF702FEFA
:102180007860164B1B687A689A4205D8134B1A6818
:102190007B68D31A7B600AE0114B1B881A467B6868
:1021A000D31A3B600D4B1B683A6813447B600D4BA0
:1021B0001B781A467B6802FB03F37B600A4B1B7893
:1021C0001A467B68D3407B6001E000237B607B681C
:1021D0009BB218460837BD4680BD00BF8441002031
:1021E0008C4100208A4100208941002080B582B0C6
:1021F00000AF0346FB80FB88002B08D1FFF7C2FD30
:102200000346214A1360032005F0E5FF39E0FB880F
:10221000012B03D81D4B1B78012B02D0FB88013BFF
:10222000FB8000BF1A4B1B68DB6803F00403002B24
:10223000F8D0174B1B68DB68DAB2154B1B6862F4E9
:102240009062DA60134B4FF40022DA60032005F04D
:10225000D0FF114B5B691B0C1B04FA880E4913431A
:102260004B61FFF78FFD0346074A1360084B1B685D
:102270009A68074B1B6842F480629A60AFF3008053
:1022800000BF0837BD4680BD844100208941002041
:10229000D0430020000800580028004080B584B0DA
:1022A00000AF454B9B6803F48063B3F5806F07D1A3
:1022B00000BF424B1B68DB6803F00403002BF8D11E
:1022C0003E4B1B689A683D4B1B6822F480629A6003
:1022D0003B4B1B78FB73FA7B3A4913465B00134474
:1022E000DB000B4408331B68BB60FFF73FFF03466E
:1022F000FB80FB88BA689A4205D20023BB81324B2F
:1023000001221A704DE0FB88304A128892B21344C1
:102310001A46BB68934206D92C4B1B88BB812A4BBB
:1023200000221A703DE0BB689AB2FB88D31ABB81C9
:10233000254B01221A7034E0FA7B224913465B00D8
:102340001344DB000B4408331A68FB889A420AD214
:10235000FA7B1C4913465B001344DB000B44083333
:1023600000221A6013E0FA7B164913465B001344FF
:10237000DB000B4408331968FB88FA7BC91A114843
:1023800013465B001344DB00034408331960FA7BF7
:102390000C4913465B001344DB000B4415331B78D8
:1023A000FB73FB7B062BC7D1BB891846FFF71EFFCB
:1023B00000BF1037BD4680BD00280040D04300203C
:1023C00080410020F0400020884100208E41002004
:1023D00080B58AB000AFEFF310837B617B697B62CD
:1023E00072B600BF594B1B68CA225A62574B1B6812
:1023F00053225A62554B1B689A68544B1B6822F44F
:1024000080629A60524B1B7887F8233097F823201C
:10241000504913465B001344DB000B440C331B781C
:10242000DBB2022B6ED197F823204A4913465B009A
:102430001344DB000B441B68FB6197F823204549DC
:1024400013465B001344DB000B4410331B68BB6175
:10245000414B1B78DBB2002B4CD097F823203D4931
:1024600013465B001344DB000B440D331B78DBB2D7
:10247000012B24D197F8233001211846FFF7F2FDF4
:102480007B6A3B613B6983F3108800BF97F8232088
:10249000304913465B001344DB000B4404331A68D5
:1024A00097F823301146184600F032FA274B1B6884
:1024B000CA225A62254B1B6853225A6212E07B6A79
:1024C000FB60FB6883F3108800BF97F82330184641
:1024D00000F09AF91D4B1B68CA225A621B4B1B68FD
:1024E00053225A6297F82330FA691946B86900F006
:1024F00095FA22E0FFF7D2FE7B6ABB60BB6883F3EC
:1025000010881AE000BF114B1B68DB6803F004035E
:10251000002BF8D00D4B1B68DB68DAB20B4B1B6845
:1025200062F49062DA600D4B4FF40022DA607B6A4D
:102530007B607B6883F3108800BF044B1B68FF221D
:102540005A6200BF2837BD4680BD00BFD04300207F
:1025500080410020F0400020884100200008005801
:1025600080B588B000AF03463960FB715E4B1B68D5
:10257000CA225A625C4B1B6853225A625B4B9B68AF
:102580005A4A43F020039360584B9B68DBB203F038
:102590000703DBB2C3F10403DAB2554B1A70534B95
:1025A0001B6903F4FE034FF4FE023A613A6992FAA2
:1025B000A2F2FA60FA687A617A69002A01D12022CF
:1025C00003E07A69B2FA82F2D2B2D340DBB20133CD
:1025D000DAB2484B1A70454B1B699BB2C3F30E032A
:1025E0009BB201339AB2444B1A80434B1B88013B88
:1025F000404A127802FB03F3A3F5A0733C4A127819
:10260000D340BB61BB694FF6FE72934204D93B4B8A
:102610004FF6FF721A8003E0BB699AB2374B1A80FB
:102620004FF40020FFF79CFB4FF40020FFF784FBE2
:10263000FB79002B3DD1324B01221A70314B4FF008
:10264000FF321A600023FB770CE0FA7F2E49134615
:102650005B001344DB000B440C3300221A70FB7F39
:102660000133FB77FB7F052BEFD9284B06221A702D
:102670001D4B1B689A681C4B1B6822F480629A6091
:10268000194B1B68DB68DAB2174B1B6862F4906267
:10269000DA601F4B4FF40022DA60032005F0A9FD39
:1026A000114B1B689A68104B1B6842F480429A6079
:1026B00009E00D4B1B68DB6803F48063002B02D03C
:1026C000032005F088FD084B1B68FF225A62002298
:1026D0000321032005F03DFD032005F054FD00BF5C
:1026E0002037BD4680BD00BFD043002000280040F9
:1026F000894100208A4100208C4100208E41002029
:102700008841002084410020F040002080410020CA
:102710000008005880B48BB000AFF860B9603B602F
:102720001346FB71002387F82630EFF31083FB611B
:10273000FB693B6272B600BF04E097F826300133B4
:1027400087F8263097F82630052B0CD897F82620E6
:102750002C4913465B001344DB000B440C331B78FD
:10276000DBB2002BE9D197F82630062B38D097F84A
:102770002620244913465B001344DB000B440C3332
:1027800001221A703B6ABB61BB6983F3108800BFEA
:1027900097F826201B4913465B001344DB000B44CB
:1027A0001033FA681A6097F82620164913465B0022
:1027B0001344DB000B440D33FA791A7097F8262086
:1027C000104913465B001344DB000B443A681A605F
:1027D000BB6897F826201A70002387F8273008E096
:1027E0003B6A7B617B6983F3108800BF012387F814
:1027F000273097F8273018462C37BD465DF8047B04
:10280000704700BFF040002080B586B000AF03469F
:10281000FB71EFF31083FB60FB687B6172B600BF56
:10282000032005F0BEFC344B1B68CA225A62324BAF
:102830001B6853225A62FA79304913465B001344ED
:10284000DB000B440C331B78DBB2022B42D1FB794B
:1028500000211846FFF706FC294B1B78FB74FB7C14
:10286000062B2FD1274B9B6803F48063B3F5806F51
:1028700007D100BF204B1B68DB6803F00403002B6B
:10288000F8D11D4B1B689A681B4B1B6822F48062B1
:102890009A6000BF184B1B68DB6803F00403002B31
:1028A000F8D0154B1B68DB68DAB2134B1B6862F477
:1028B0009062DA60144B4FF40022DA60032005F0D6
:1028C00098FC07E0114B1B78DBB2FA7C9A4201D0EE
:1028D000FFF7E4FC084B1B68FF225A62032005F057
:1028E00052FC7B69BB60BB6883F3108800BF00BFEC
:1028F0001837BD4680BD00BFD0430020F040002007
:10290000804100200028004000080058814100203C
:1029100080B586B000AF03463960FB71FA793B4958
:1029200013465B001344DB000B440C331B78DBB213
:10293000022B03D1FB791846FFF766FFEFF31083F4
:10294000FB60FB687B6172B600BF032005F029FCC9
:102950002F4B1B68CA225A622D4B1B6853225A62A6
:10296000FA792A4913465B001344DB000B440C330D
:1029700002221A70FA79254913465B001344DB00E2
:102980000B4408333A681A60FA79204913465B0011
:102990001344DB000B4404333A681A60FB79184691
:1029A000FFF7B6FA03467B821A4B1B787B741A4BEF
:1029B0001B78DBB27A7C9A4202D0FFF76FFC13E0FF
:1029C000FA79124913465B001344DB000B440833C9
:1029D00019687B8AFA79C91A0C4813465B001344BC
:1029E000DB00034408331960094B1B68FF225A625D
:1029F000032005F0C8FB7B69BB60BB6883F31088CC
:102A000000BF00BF1837BD4680BD00BFF0400020AA
:102A1000D0430020804100208141002080B584B057
:102A200000AFF8600B467A60FB727B68984700BF86
:102A30001037BD4680BD80B582B000AF0346FB7144
:102A4000FB79002B02D100F0A7F900E000BF00BF26
:102A50000837BD4680BD000080B584B000AFB960C6
:102A60007B600346FB731346BB81FB7B002B0CD1C1
:102A7000084A7B681360084B084A1A60BB891A46EB
:102A8000B968054808F0C2FB00E000BF00BF10377E
:102A9000BD4680BD904100206842002000380140C2
:102AA00080B586B000AFB9607B600346FB73134608
:102AB000BB810023FB750023BB75FB7B002B0ED174
:102AC000174A7B681360174B174A1A60BB891A466E
:102AD000B968144808F0E6FB0346FB7500E000BF48
:102AE000FB7D032B16D801A252F823F0FD2A000823
:102AF000032B0008092B00080F2B00080023BB75CF
:102B000009E00123BB7506E00223BB7503E0032344
:102B1000BB7500E000BFBB7D18461837BD4680BDC1
:102B200094410020684200200038014080B582B006
:102B300000AF78607B681B681A46094B9A4207D140
:102B4000084B1B68002B05D0064B1B68984701E01B
:102B500000BF00E000BF00BF0837BD4680BD00BF1A
:102B6000003801409041002080B582B000AF78600D
:102B70007B681B681A46094B9A4207D1084B1B68B1
:102B8000002B05D0064B1B68984701E000BF00E012
:102B900000BF00BF0837BD4680BD00BF0038014000
:102BA0009441002080B483B000AF78604FF0B04310
:102BB000D3F8903023F018024FF0B0417B681343F4
:102BC000C1F8903000BF0C37BD465DF8047B7047FC
:102BD00080B485B000AF78604FF0B0439A6C4FF08E
:102BE000B0417B6813438B644FF0B0439A6C7B68B1
:102BF0001340FB60FB6800BF1437BD465DF8047BE3
:102C0000704780B485B000AF78604FF0B043DA6CA5
:102C10004FF0B0417B681343CB644FF0B043DA6CA4
:102C20007B681340FB60FB6800BF1437BD465DF84E
:102C3000047B704780B500AF05F0B2F8FEF716FCD4
:102C400000F018F800F074F800F092F800F061F964
:102C500000F042F900F0EEF800F00AF900F0F2F8A6
:102C60004FF48050FFF7B4FFFEF70EFCFEF76EFE48
:102C7000FCE7000080B59AB000AF07F120034822BE
:102C80000021184625F09CFF3B1D00221A605A6067
:102C90009A60DA601A615A619A6106F089FA002036
:102CA000FFF780FF214B1B6823F4C0631F4A43F4E6
:102CB000007313601D4B1B6803F4C0633B603B68EB
:102CC00047233B624FF480337B620123BB624FF4A6
:102CD0008073FB620123BB6440233B630023FB64DE
:102CE00007F12003184606F0F7FD0346002B01D03C
:102CF00000F01CF96F237B600223BB600023FB60A4
:102D000000233B6100237B610023BB610023FB6147
:102D10003B1D0121184607F053F90346002B01D053
:102D200000F004F900BF6837BD4680BD00040058BC
:102D300080B594B000AF3B4650220021184625F0E4
:102D40003FFF4FF440533B604FF480437B640223CA
:102D5000BB641023FB643B46184607F06EFD034638
:102D6000002B01D000F0E2F800BF5037BD4680BD17
:102D700080B500AF064B074A1A60054806F092F985
:102D80000346002B01D000F0D1F800BF80BD00BF8A
:102D900098410020000C005880B500AF234B244A16
:102DA0001A60224B4FF4E1325A60204B00229A60A5
:102DB0001E4B0022DA601D4B00221A611B4B0C22B5
:102DC0005A611A4B00229A61184B4FF40042DA61A3
:102DD000164B00221A62154B00225A62134B002236
:102DE0009A62124808F0C2F90346002B01D000F0A5
:102DF0009DF800210D480AF016FA0346002B01D079
:102E000000F094F84FF0206108480AF04AFA0346AF
:102E1000002B01D000F08AF804480AF0C9F90346F3
:102E2000002B01D000F082F800BF80BD6842002076
:102E30000038014080B400AF00BFBD465DF8047BA0
:102E40007047000080B500AF074B084A1A60064B78
:102E500000225A60044807F077FF0346002B01D098
:102E600000F064F800BF80BDBC4300200010005893
:102E700080B500AF164B174A1A60154B00225A60F6
:102E8000134B0F229A60124B47F6FF72DA60104B19
:102E900000221A610E4B00229A610D4B0022DA616A
:102EA0000B4B00225A610A4807F084FF0346002BAF
:102EB00001D000F03BF800220021054808F07AF824
:102EC0000346002B01D000F031F800BF80BD00BFE9
:102ED000D04300200028004080B500AF0420FFF759
:102EE00077FE0120FFF774FE0220FFF771FE00223B
:102EF0000F210E2005F02DF90E2005F044F90022D7
:102F00000F213A2005F025F93A2005F03CF900BFE1
:102F100080BD80B500AF0420FFF773FE0120FFF7EE
:102F200070FE0220FFF76DFE00BF80BD80B400AFD1
:102F300000BFBD465DF8047B704780B400AF4FF022
:102F4000B043D3F890304FF0B04243F40043C2F89E
:102F5000903000BFBD465DF8047B704780B485B0FB
:102F600000AF78604FF0B043DA6C4FF0B0417B684F
:102F70001343CB644FF0B043DA6C7B681340FB60C3
:102F8000FB6800BF1437BD465DF8047B704780B412
:102F900085B000AF78604FF0B0431A6D4FF0B0418C
:102FA0007B6813430B654FF0B0431A6D7B68134089
:102FB000FB60FB6800BF1437BD465DF8047B7047BB
:102FC00080B485B000AF78604FF0B0439A6D4FF099
:102FD000B0417B6813438B654FF0B0439A6D7B68BB
:102FE0001340FB60FB6800BF1437BD465DF8047BEF
:102FF000704780B485B000AF78604FF0B043DA6DB1
:103000004FF0B0417B681343CB654FF0B043DA6DAE
:103010007B681340FB60FB6800BF1437BD465DF85A
:10302000047B704780B485B000AF78604FF0B04348
:103030001A6E4FF0B0417B6813430B664FF0B043FC
:103040001A6E7B681340FB60FB6800BF1437BD46F7
:103050005DF8047B704780B500AF4FF40020FFF7A8
:1030600096FF002200212E2005F073F82E2005F097
:103070008AF800BF80BD000080B582B000AF7860E4
:103080007B681B680D4A934213D14FF48010FFF701
:103090007EFF002200212C2005F05BF82C2005F09B
:1030A00072F8002200212D2005F053F82D2005F0A4
:1030B0006AF800BF0837BD4680BD00BF000C00584D
:1030C00080B5A0B000AF786007F16C0300221A60F1
:1030D0005A609A60DA601A6107F10C0350220021ED
:1030E000184625F06DFD7B681B68684A93426ED1D7
:1030F0000223FB600023BB6207F10C03184607F0B4
:103100009CFB0346002B01D0FFF710FF0120FFF7C7
:1031100070FF0120FFF722FF0C23FB6602233B67B1
:1031200000237B670323BB670823FB6707F16C035E
:1031300019464FF0904005F0D9FD554B554A1A609D
:10314000534B11225A60524B10229A60504B00226E
:10315000DA604F4B80221A614D4B00225A614C4B72
:1031600000229A614A4B0022DA61494B00221A621E
:10317000474805F04DF80346002B01D0FFF7D6FE77
:103180004FF08853FB6500233B66002387F86430CB
:10319000002387F865300123BB6607F15C031946FD
:1031A0003B4805F067FB0346002B01D0FFF7BEFE4E
:1031B0007B68374ADA67364A7B68936200220021CF
:1031C000252004F0C6FF252004F0DDFF5AE07B68CF
:1031D0001B68314A934255D10123FB6000237B6277
:1031E00007F10C03184607F028FB0346002B01D01B
:1031F000FFF79CFE4FF48040FFF714FF0220FFF71B
:10320000ADFEC023FB6602233B6700237B670323DD
:10321000BB670723FB6707F16C0319461F4805F0DE
:1032200065FD1F4B1F4A1A601D4B0F225A601C4B35
:1032300010229A601A4B0022DA60194B80221A6120
:10324000174B00225A61164B00229A61144B002240
:10325000DA61134B00221A62114804F0D9FF0346C9
:10326000002B01D0FFF762FE7B680D4ADA670C4A3B
:103270007B68936200220021242004F06AFF24204E
:1032800004F081FF00BF8037BD4680BD0080004054
:10329000FC42002044000240003801400004004885
:1032A0005C4300204404024080B596B000AF7860D3
:1032B00007F1080350220021184625F081FC7B68A5
:1032C0001B680D4A934213D14FF40073BB604FF05B
:1032D00080533B6407F10803184607F0AEFA034633
:1032E000002B01D0FFF722FE4FF48020FFF74FFEA6
:1032F00000BF5837BD4680BD0010005880B596B05D
:1033000000AF786007F1080350220021184625F02D
:1033100057FC7B681B68124A93421DD14FF400632F
:10332000BB604FF48073BB6407F10803184607F0D5
:1033300084FA0346002B01D0FFF7F8FDFFF7FDFDEF
:103340004FF48060FFF73CFE00220021032004F0D0
:1033500000FF032004F017FF00BF5837BD4680BDB3
:103360000028004080B400AF00BFBD465DF8047B7C
:103370007047000080B500AF022004F0DDFB02487A
:1033800026F070FAFEE700BF34D3020880B400AF25
:10339000FEE780B400AFFEE780B400AFFEE780B484
:1033A00000AF00BFBD465DF8047B704780B400AF3E
:1033B00000BFBD465DF8047B704780B400AF00BF1E
:1033C000BD465DF8047B704780B500AF04F042FD58
:1033D00000BF80BD80B500AFFEF7FAFF00BF80BD23
:1033E00080B500AF024805F0F4F800BF80BD00BF13
:1033F000FC42002080B500AF024807F0D3FF00BFB9
:1034000080BD00BF6842002080B500AF024807F0D1
:10341000C9FF00BF80BD00BFD441002080B500AF10
:1034200004F0BCF900BF80BD80B500AF04F0EEF938
:1034300000BF80BD80B500AF05F010FE00BF80BDAD
:1034400080B500AF024805F0C4F800BF80BD00BFE2
:103450005C43002080B500AF102005F0E7FD00BF01
:1034600080BD80B500AF012005F0E0FD00BF80BD4C
:1034700080B500AF022005F0D9FD00BF80BD80B44B
:1034800000AF01231846BD465DF8047B704780B548
:1034900082B000AF7860396025F01EFB034616222B
:1034A0001A604FF0FF3318460837BD4680BD80B51F
:1034B00082B000AF78604FF0FF317868FFF7E7FF28
:1034C000FEE780B586B000AFF860B9607A6000238F
:1034D0007B610AE0AFF300800146BB685A1CBA600A
:1034E000CAB21A707B6901337B617A697B689A4240
:1034F000F0DB7B6818461837BD4680BD80B483B0CA
:1035000000AF78604FF0FF3318460C37BD465DF8CA
:10351000047B704780B483B000AF786039603B684B
:103520004FF400525A60002318460C37BD465DF830
:10353000047B704780B483B000AF786001231846E5
:103540000C37BD465DF8047B704780B485B000AF92
:10355000F860B9607A60002318461437BD465DF8FC
:10356000047B704780B586B000AF7860144A154B75
:10357000D31A7B617B693B61134B1B68002B02D123
:10358000114B124A1A60104B1A687B6813443A694F
:103590009A4207D225F0A0FA03460C221A604FF097
:1035A000FF3309E0084B1B68FB60074B1A687B6818
:1035B0001344054A1360FB6818461837BD4680BDA2
:1035C0000000032000100000F4430020C07F002012
:1035D00080B400AF034B1B681846BD465DF8047B02
:1035E000704700BF8075FF1F80B400AF034B1B689E
:1035F000DBB21846BD465DF8047B70478475FF1F3B
:1036000080B400AF034B1B681B0A1846BD465DF82B
:10361000047B70478475FF1FB0B596B004AF3A4B7A
:103620003C1D1D460FCD0FC40FCD0FC40FCD0FC4D1
:1036300095E8070003C4228000F080F801210220F1
:1036400013F094F90121022013F060F92F4A0021B0
:103650004FF4007013F0B6FA3B1D184612F03FFA13
:10366000034687F8473097F84730002B08D097F883
:1036700047301946264826F06FF8FFF757FC02E05E
:10368000244826F069F8922387F8463000F06CF859
:1036900038643A6C0621002011F0F1FD034687F8EA
:1036A000463097F84630002B06D097F8463019463A
:1036B000194826F051F821E0184826F0D3F83B6C61
:1036C00005331B7818463B6C04331B781C463B6C57
:1036D00003331B781D463B6C02331B781A463B6C48
:1036E00001331B7819463B6C1B78029301910092C1
:1036F0002B46224601460A4826F02EF810F0BAF969
:1037000000BF4837BD46B0BD88D402082D5D010812
:1037100044D302087CD30208A4D3020800D40208D0
:103720004CD4020880B582B000AF786078681BF096
:103730005FFF012318460837BD4680BD80B582B0C3
:1037400000AF064B3B60064B7B603B461946054885
:1037500012F0D0FA00BF0837BD4680BD2800032014
:103760006F3800083738000880B586B000AFFFF723
:103770002FFF38613B69B3F1FF3F23D0FFF740FFD4
:10378000B860FFF731FF78603B69DAB2164B1A7008
:103790003B691B0ADAB2144B5A707B68DAB2124BDF
:1037A0009A70BB68DAB2104BDA70BB681B0ADAB2E7
:1037B0000D4B1A71BB681B0CDAB20B4B5A710A4BDA
:1037C0007B610BE0002013F067F8F860FB68002BCA
:1037D00002D0FB687B6101E0044B7B617B6918468A
:1037E0001837BD4680BD00BFF8430020942703086A
:1037F00080B582B000AF786000214FF4007013F004
:1038000003FA00BF0837BD4680BD80B582B000AF67
:103810007860012013F064FA00BF0837BD4680BD10
:1038200080B582B000AF7860012013F079FA00BF54
:103830000837BD4680BD80B584B000AF78607B6836
:10384000FB60FB685B680833184610F04BF90346D1
:10385000FB72FB7A002B03D0FB6801221A7003E095
:10386000FB6800221A7000BF1037BD4680BD80B5CE
:1038700084B000AF0346FB71FB79002B02D0012B13
:1038800007D00DE040F2FF33FB60F86813F0E8F971
:1038900006E040F2FF33FB60F86813F001FA00BF66
:1038A00000BF1037BD4680BD80B584B000AF7860E2
:1038B0007B681B8819467B685B881A46164825F08A
:1038C0004BFF7B685B7B1946144825F045FF7B68FE
:1038D0005B7B002B1CD1124825F03EFF0023FB73BD
:1038E0000EE07B689B681B7819460E4825F034FF74
:1038F0007B689B685A1C7B689A60FB7B0133FB7377
:103900007B681B7BFA7B9A42EBD3074825F0AAFF22
:1039100000BF1037BD4680BDC4D4020804D50208DC
:1039200018D5020824D502082CD5020880B582B02B
:1039300000AF78607B681B8819467B685B881A46F5
:10394000064825F009FF7B685B7B1946044825F093
:1039500003FF00BF0837BD4680BD00BF30D5020859
:1039600004D5020880B584B000AF78607B681B88FE
:103970001946174825F0F0FE7B689B7A19461548D2
:1039800025F0EAFE7B689B7A002B1DD1124825F0BA
:1039900069FF0023FB730EE07B685B681B88194698
:1039A0000E4825F0D9FE7B685B689A1C7B685A60DC
:1039B000FB7B0133FB73FB7B9AB27B681B899A42CA
:1039C000EAD3074825F04EFF00BF1037BD4680BD43
:1039D00074D5020804D502089CD5020824D5020833
:1039E0002CD5020880B584B000AF78607B681B8856
:1039F00019467B685B881A46184825F0ADFE7B683F
:103A00005B7B1946164825F0A7FE7B685B7B002B85
:103A10001FD1144825F0A0FE0023FB730EE07B6845
:103A20009B681B781946104825F096FE7B689B68BA
:103A30005A1C7B689A60FB7B0133FB737B681B7BA2
:103A4000FA7B9A42EBD3094825F00CFF084825F091
:103A500009FF00BF1037BD4680BD00BFB4D50208C6
:103A600004D50208F8D5020824D502082CD502088E
:103A70000CD6020880B584B000AF78607B681B88E4
:103A80001946174825F068FE7B685B7B1946154888
:103A900025F062FE7B685B7B002B1CD1124825F071
:103AA0005BFE0023FB730EE07B685B681B781946A6
:103AB0000E4825F051FE7B685B685A1C7B685A6093
:103AC000FB7B0133FB737B681B7BFA7B9A42EBD356
:103AD000074825F0C7FE00BF1037BD4680BD00BFB8
:103AE00044D6020804D5020874D6020824D5020878
:103AF0002CD5020880B582B000AF78607B681B8847
:103B00001946064825F028FE7B685B7B1946044869
:103B100025F022FE00BF0837BD4680BD80D60208D2
:103B200004D5020880B584B000AF78607B689B79CB
:103B30001946124825F010FE114825F093FE002387
:103B4000FB730EE07B681B681B8819460D4825F047
:103B500003FE7B681B689A1C7B681A60FB7B013341
:103B6000FB73FB7B9AB27B689B889A42EAD3064838
:103B700025F078FE00BF1037BD4680BD04D5020891
:103B8000B0D6020824D502082CD5020880B584B02E
:103B900000AF78607B681B881946184825F0DCFD6B
:103BA0007B685B7B1946164825F0D6FD7B685B7BFE
:103BB000002B1FD1134825F0CFFD0023FB730EE02F
:103BC0007B685B681B7819460F4825F0C5FD7B684C
:103BD0005B685A1C7B685A60FB7B0133FB737B6814
:103BE0001B7BFA7B9A42EBD3084825F03BFE084842
:103BF00025F038FE00BF1037BD4680BDC8D602088C
:103C000004D50208F8D6020824D502082CD50208EB
:103C10000CD7020880B584B002AF78607B681B784F
:103C200019467B685A687B685B8818467B681B7AF4
:103C300000930346034825F08FFD00BF0837BD46BB
:103C400080BD00BF44D7020880B584B002AF786061
:103C50007B681B7819467B685A687B685B881846C6
:103C60007B681B7A00930346034825F075FD00BF6F
:103C70000837BD4680BD00BFACD7020880B582B012
:103C800000AF78607B689B7A1946104825F064FD88
:103C90007B68DB7A002B0AD07B681B7819467B682F
:103CA0005A687B681B890A4825F056FD09E07B6845
:103CB0001B7819467B685A687B681B89054825F084
:103CC0004BFD00BF0837BD4680BD00BF04D50208CC
:103CD00018D8020874D8020880B582B000AF7860A6
:103CE0007B689B7A1946174825F036FD7B68DB7A9E
:103CF000002B0AD07B681B7819467B685A687B6862
:103D00001B89114825F028FD17E07B681B7B002BE1
:103D100009D07B681B7819467B685B681A460B489C
:103D200025F01AFD09E07B681B7819467B685A6804
:103D30007B681B89064825F00FFD00BF0837BD468C
:103D400080BD00BF04D50208C8D802082CD90208DB
:103D500074D9020880B582B000AF78607B689B7A26
:103D60001946104825F0F8FC7B68DB7A002B0AD056
:103D70007B681B7819467B685A687B681B890A48F0
:103D800025F0EAFC09E07B681B7819467B685A68D5
:103D90007B681B89054825F0DFFC00BF0837BD465E
:103DA00080BD00BF04D50208CCD902082CDA020875
:103DB00080B582B000AF78607B685B68B3F5885FE0
:103DC00002D178680FF056FD00BF0837BD4680BDB0
:103DD000F0B589B006AF78607B685B7C1946144803
:103DE00025F0BAFC7B681B7B1E467B681B789C46D3
:103DF0007B685A687B685B8919467B689B7B1846A1
:103E00007B68DB7B1C467B681B7C1D467B685B7B81
:103E10000493039502940190009113466246314643
:103E2000044825F099FC00BF0C37BD46F0BD00BF2B
:103E300004D5020884DA020880B582B000AF786049
:103E4000084611461A460346FB700B463B80134654
:103E5000BB70BB78002B40F09D80BA787B681878E7
:103E60005A4913469B0013440B4402461A70BA7811
:103E70007B68B3F8013098B2544913469B00134451
:103E80000B440246A3F80120FB78032B02D0FB78F9
:103E9000022B48D1BA784D4913469B0013440B447A
:103EA000B3F801309AB24A4B1A80494B1A6811464E
:103EB0005868024698680346042000F00DFFBA785F
:103EC0007B68B3F8033098B2404913469B00134413
:103ED0000B440246A3F80320BA783C4913469B00E2
:103EE00013440B44B3F8013099B2BA7837481346FB
:103EF0009B0013440344B3F803309BB2994249D169
:103F0000BA78324913469B0013440B44B3F801308E
:103F10009BB2002B03D0002003F00EFE3AE00020FD
:103F200003F024FE36E0BA78284913469B00134478
:103F30000B441B78012B19D1FB78012B16D1244B94
:103F4000002262F009021A70002242F07C025A70CC
:103F50001F4B1A68114658680246986803460420A9
:103F600000F0BAFE002003F0E7FD13E0184B00223A
:103F700042F001021A7000225A70154B1A6811465D
:103F80005868024698680346022000F0A5FE00200B
:103F900003F0ECFD00210F4809F0F6FABB78194652
:103FA0000D4825F0D9FB00210A4809F0EDFABB784D
:103FB00019460A4825F0D0FBBB781946012009F0C4
:103FC00027FD002318460837BD4680BD0044002069
:103FD000204400209C27030888DB0208CCDB020871
:103FE00080B584B000AF7860084611461A46034693
:103FF000FB700B463B801346BB70BA787B68B3F905
:10400000003018B2484913465B0013449B000B4430
:1040100002461A80BA78444913465B0013449B0059
:104020000B44B3F90030002B08DCBA783E49134644
:104030005B0013449B000B4400221A80BA783A4973
:1040400013465B0013449B000B44B3F900309AB253
:10405000364B1A80354B1A88354B1B889A4205D946
:10406000324B1B8847F6F542934203D92F4B1B88EE
:10407000002B03D12F4B00221A7002E02D4B01229E
:104080001A702A4B1A882A4B1A80BA782649134686
:104090005B0013449B000B44B3F90030002B08DA9B
:1040A000BA78214913465B0013449B000B4400225D
:1040B0001A80BA781C4913465B0013449B000B44DA
:1040C000B3F900309BB2002247F6FF71184602F0A8
:1040D00083FB0346FB81184BFA891A80164B1A683A
:1040E00011465868024698680346042000F0F4FD23
:1040F0000021124809F048FABB781946104825F00B
:104100002BFB00210D4809F03FFABB7819460D48FA
:1041100025F022FBBB781946022009F079FC002328
:1041200018461037BD4680BD0844002030440020AA
:104130001A4400203244002020440020B427030801
:10414000ECDB020830DC020880B582B000AF78609A
:10415000084611461A460346FB700B463B80134641
:10416000BB70BA787B68B3F9003018B225491346A2
:104170005B0013449B000B4402461A80BA78214925
:1041800013465B0013449B000B44B3F90030312B02
:1041900016DD1D4B002262F009021A70002242F067
:1041A0007C025A70184B1A68114658680246986883
:1041B0000346042000F090FD002003F0BDFC0CE05D
:1041C000114B1A6811465868024698680346022047
:1041D00000F082FD002003F0C9FC00210B4809F02B
:1041E000D3F9BB7819460A4825F0B6FA00210748EA
:1041F00009F0CAF9074825F035FB002318460837AF
:10420000BD4680BD0844002020440020CC27030880
:1042100050DC02088CDC020880B582B000AF786008
:10422000084611461A460346FB700B463B80134670
:10423000BB70BA787B6899682E4813465B001344BC
:104240009B00034408331960BA787B685879294980
:1042500013465B0013449B000B44053302461A705F
:10426000BA787B68B3F9063018B2224913465B006E
:1042700013449B000B44063302461A80BA787B68CD
:10428000B3F9003018B21B4913465B0013449B007E
:104290000B4402461A80BA787B6818791549134690
:1042A0005B0013449B000B44043302461A70BA7837
:1042B0007B68B3F9023018B20E4913465B00134411
:1042C0009B000B44023302461A8000210A4809F081
:1042D0005BF9BB781946094825F03EFA00210648EB
:1042E00009F052F9064825F0BDFA002318460837B0
:1042F000BD4680BD08440020E427030894DC020882
:10430000D0DC020880B582B000AF78600846114664
:104310001A460346FB700B463B801346BB707B6816
:104320001A78BB7811B2124A22F8131000211148F2
:1043300009F02AF9BB7819460F4825F00DFA00213B
:104340000C4809F021F9BB7819460C4825F004FA0D
:10435000BB78074A32F91330012B02D1084B0122F6
:104360001A7002F09BFA002318460837BD4680BD3C
:1043700014440020FC270308DCDC0208FCDC0208F3
:104380004445002080B483B000AF78600B467B804A
:1043900013467B707A78074913469B0013440B44FD
:1043A0001A787B681A70002318460C37BD465DF8F2
:1043B000047B70470044002080B483B000AF786075
:1043C0000B467B8013467B707A781E4913469B0010
:1043D00013440B44B3F801309BB2DAB27B681A7015
:1043E0007A78184913469B0013440B44B3F8013004
:1043F0009BB21B0A9AB27B680133D2B21A707A78E8
:10440000104913469B0013440B44B3F803309AB28F
:104410007B680233D2B21A707A780A4913469B003D
:1044200013440B44B3F803309BB21B0A9AB27B6867
:104430000333D2B21A70002318460C37BD465DF81C
:10444000047B70470044002080B483B000AF7860E4
:104450000B467B8013467B707A781F4913465B00BE
:1044600013449B000B44B3F90030DAB27B681A7036
:104470007A78194913465B0013449B000B44B3F947
:1044800000301B121AB27B680133D2B21A707A78EC
:10449000114913465B0013449B000B440233B3F9EC
:1044A00000207B680233D2B21A707A780A49134628
:1044B0005B0013449B000B440233B3F900301B1222
:1044C0001AB27B680333D2B21A70002318460C3735
:1044D000BD465DF8047B70470844002080B483B07B
:1044E00000AF78600B467B8013467B707B78064A72
:1044F00032F91330DAB27B681A70002318460C3791
:10450000BD465DF8047B70471444002080B483B03E
:1045100000AF78600B467B8013467B707B78054A42
:10452000D25C7B681A70002318460C37BD465DF8D4
:10453000047B70471844002080B586B000AFF86057
:10454000B96011461A460B46FB8013467B71002169
:10455000264809F019F87B791946254825F0FCF81A
:104560000021224809F010F8224825F07BF90023A9
:10457000FB7531E0FB7D002B0CD100211B4809F0BD
:1045800003F8FB7DFA6813441B7819461A4825F096
:10459000E3F81EE0FB7D012B0CD10021134808F04D
:1045A000F3FFFB7DFA6813441B781946134825F086
:1045B000D3F80EE0FB7D022B0BD100210B4808F055
:1045C000E3FFFB7DFA6813441B7819460C4825F07D
:1045D000C3F8FB7D0133FB75FB7DBA689A42C9D8ED
:1045E000002318461837BD4680BD00BF1C280308AD
:1045F00044DD020880DD020888DD0208A4DD02082F
:10460000C0DD020880B584B000AFF860B960114623
:104610001A460B46FB8013467B710021094808F0BF
:10462000B3FF7B791946084825F096F80021054824
:1046300008F0AAFF054825F015F9002318461037A1
:10464000BD4680BD38280308DCDD020828DE0208EC
:1046500080B586B000AFF860B96011461A460B46C7
:10466000FB8013467B710021164808F08DFF7B7993
:104670001946154825F070F80021124808F084FF0B
:10468000124825F0EFF80023FB7511E0FB7D002BAD
:104690000BD100210B4808F077FFFB7DFA6813442B
:1046A0001B7819460A4825F057F8FB7D0133FB7546
:1046B000FB7DBA689A42E9D8002318461837BD46F0
:1046C00080BD00BF6428030830DE020870DE0208E7
:1046D00078DE020880B584B000AF786008461146E5
:1046E0001A460346FB700B463B801346BB70002105
:1046F000414808F049FF414825F02EF800213E4886
:1047000008F042FFB9787B681B889BB21A467B6829
:10471000B3F807309BB23A4825F01EF8BA787B68A8
:104720001B8898B2374913469B0013445B0013441F
:104730000B4402461A80BA787B68B3F8073098B207
:10474000304913469B0013445B0013440B4402336F
:1047500002461A807B681B889BB2002B0DD0BA786A
:104760007B681B8898B2274913469B0013445B0063
:1047700013440B44023302461A80234B1A88234BFE
:104780001B889A4205D9204B1B8847F6F542934275
:1047900003D91D4B1B88002B03D11D4B00221A701F
:1047A00002E01B4B01221A70174B1A88174B1A8014
:1047B000BA78144913469B0013445B0013440B441E
:1047C0001B889BB200224FF6FF71184602F004F8D6
:1047D0000346FB810F4AFB8913800E4B0ECB04204E
:1047E00000F07AFABB781946032009F011F900238A
:1047F00018461037BD4680BD84280308ACDE020889
:10480000B8DE020874000020304400202C44002050
:10481000324400202044002080B582B000AF786090
:10482000084611461A460346FB700B463B8013466A
:10483000BB70BB787A68528891B20C4A22F8131088
:1048400000210B4808F0A0FEBB781946094824F067
:1048500083FF0021064808F097FE074824F07CFFFC
:10486000002318460837BD4680BD00BF1C44002009
:10487000A0280308E8DE02082CDF020880B582B019
:1048800000AF7860084611461A460346FB700B4697
:104890003B801346BB707B681B889BB2002B03D008
:1048A000002003F049F902E0002003F05FF9BA7834
:1048B0007B681B8898B2124913469B0013445B0027
:1048C00013440B44043302461A8000210D4808F0BB
:1048D0005BFE0D4824F0C6FF00210A4808F054FE94
:1048E000BB781946094824F037FFBB7819460320E6
:1048F00009F08EF8002318460837BD4680BD00BF7A
:1049000074000020C428030838DF020844DF0208CE
:1049100080B582B000AF78600B46FB70FA787B6898
:10492000B3F8073098B2144913469B0013445B0058
:1049300013440B44023302461A8000210F4808F04A
:1049400023FE0F4824F008FF00210C4808F01CFE4D
:10495000FA78094913469B0013445B0013440B4447
:1049600002331B889BB21946064824F0F5FE00234B
:1049700018460837BD4680BD74000020E8280308AB
:1049800090DF02089CDF020880B582B000AF78603B
:10499000084611461A460346FB700B463B801346F9
:1049A000BB70BA787B6818781E4913469B00134485
:1049B0005B0013440B44063302461A70BA787B68D6
:1049C000B3F8013098B2174913469B0013445B00BB
:1049D00013440B440246A3F80720BA787B68B3F867
:1049E000033098B20F4913469B0013445B001344F5
:1049F0000B4408330246A3F8012000210A4808F0BE
:104A0000C3FD0A4824F0A8FE0021074808F0BCFDB9
:104A1000BB781946064824F09FFE00231846083745
:104A2000BD4680BD7400002008290308D8DF0208B5
:104A3000E4DF020880B483B000AF78600B467B806F
:104A400013467B707A78214913469B0013445B0020
:104A500013440B441B889BB2DAB27B681A707A78D5
:104A60001A4913469B0013445B0013440B441B88F4
:104A70009BB21B0A9AB27B680133D2B21A707A7861
:104A8000124913469B0013445B0013440B4402334A
:104A90001B889AB27B680233D2B21A707A780B49BB
:104AA00013469B0013445B0013440B4402331B88E2
:104AB0009BB21B0A9AB27B680333D2B21A700023EE
:104AC00018460C37BD465DF8047B70477400002023
:104AD00080B483B000AF78600B467B8013467B7058
:104AE0007B781B4A32F81330DAB27B681A707B7815
:104AF000174A32F813301B0A9AB27B680133D2B2DC
:104B00001A707A78134913469B0013445B001344D0
:104B10000B4402331B889AB27B680233D2B21A70FC
:104B20007A780C4913469B0013445B0013440B44F2
:104B300002331B889BB21B0A9AB27B680333D2B242
:104B40001A70002318460C37BD465DF8047B704789
:104B50001C4400207400002080B483B000AF786053
:104B60000B467B8013467B707A78124913469B0074
:104B700013445B0013440B4404331B889BB2DAB22A
:104B80007B681A707A780B4913469B0013445B00CC
:104B900013440B4404331B889BB21B0A9AB27B68F4
:104BA0000133D2B21A70002318460C37BD465DF8A7
:104BB000047B70477400002080B483B000AF78603D
:104BC0000B467B8013467B707A78124913469B0014
:104BD00013445B0013440B4402331B889BB2DAB2CC
:104BE0007B681A707A780B4913469B0013445B006C
:104BF00013440B4402331B889BB21B0A9AB27B6896
:104C00000133D2B21A70002318460C37BD465DF846
:104C1000047B70477400002080B483B000AF7860DC
:104C20000B467B8013467B707A782A4913469B009B
:104C300013445B0013440B4406331A787B681A70E4
:104C40007A78244913469B0013445B0013440B44B9
:104C5000B3F807309AB27B680133D2B21A707A780F
:104C60001C4913469B0013445B0013440B44B3F8E8
:104C700007309BB21B0A9AB27B680233D2B21A7019
:104C80007A78144913469B0013445B0013440B4489
:104C90000833B3F801309AB27B680333D2B21A708A
:104CA0007A780C4913469B0013445B0013440B4471
:104CB0000833B3F801309BB21B0A9AB27B68043305
:104CC000D2B21A70002318460C37BD465DF8047B3B
:104CD000704700BF7400002090B484B000AF044659
:104CE000384680E80E002346FB7300BF1037BD46F0
:104CF00090BC704780B586B000AFF860B9601146CF
:104D00001A460B46FB8013467B7100237B820021F1
:104D10003A4808F039FC7B791946394824F01CFDE3
:104D20000021364808F030FC364824F09BFD002373
:104D30007B615AE07B69002B02D07B69022B05D195
:104D4000FA687B6913441B787B824BE07B69012BFB
:104D500018D10021294808F017FC7A8AF9687B6984
:104D60000B441B781B0242EA03007A8AF9687B69CC
:104D70000B441B781B0213431A460146224824F0B9
:104D8000EBFC2FE07B69032B18D100211B4808F0B6
:104D9000FBFB7A8AF9687B690B441B781B0242EAA9
:104DA00003007A8AF9687B690B441B781B02134362
:104DB0001A460146154824F0CFFC13E07B69042B0A
:104DC00010D100210D4808F0DFFBFA687B6913441D
:104DD0001B781946FA687B6913441B781A460C48FD
:104DE00024F0BAFC7B6901337B617A69BB689A4223
:104DF000A0D3002318461837BD4680BD28290308D4
:104E00004CE0020888E0020890E00208B0E00208E6
:104E1000D0E0020880B586B000AFF860B9601146F6
:104E20001A460B46FB8013467B7100237B820021D0
:104E30003A4808F0A9FB7B791946394824F08CFCE4
:104E40000021364808F0A0FB364824F00BFD002373
:104E50007B615AE07B69002B02D07B69022B05D174
:104E6000FA687B6913441B787B824BE07B69012BDA
:104E700018D10021294808F087FB7A8AF9687B69F4
:104E80000B441B781B0242EA03007A8AF9687B69AB
:104E90000B441B781B0213431A460146224824F098
:104EA0005BFC2FE07B69032B18D100211B4808F025
:104EB0006BFB7A8AF9687B690B441B781B0242EA18
:104EC00003007A8AF9687B690B441B781B02134341
:104ED0001A460146154824F03FFC13E07B69042B79
:104EE00010D100210D4808F04FFBFA687B6913448C
:104EF0001B781946FA687B6913441B781A460C48DC
:104F000024F02AFC7B6901337B617A69BB689A4291
:104F1000A0D3002318461837BD4680BD4829030892
:104F2000ECE0020830E1020890E00208B0E002087C
:104F3000D0E0020880B586B000AFF860B9601146D5
:104F40001A460B46FB8013467B710021204808F06F
:104F50001BFB7B7919461F4824F0FEFB00211C48EF
:104F600008F012FB1C4824F07DFC00237B6126E046
:104F70007B69002B05D1FA687B6913441B787B821F
:104F80001AE07B69012B17D10021114808F0FCFAC7
:104F90007A8AF9687B690B441B781B0242EA03009A
:104FA0007A8AF9687B690B441B781B0213431A4603
:104FB00001460A4824F0D0FB7B6901337B617A69A2
:104FC000BB689A42D4D3002318461837BD4680BD2B
:104FD0006C29030838E1020878E1020880E1020840
:104FE00080B586B000AFF860B96011461A460B462E
:104FF000FB8013467B710021204808F0C5FA7B79BD
:1050000019461F4824F0A8FB00211C4808F0BCFAF0
:105010001C4824F027FC00237B6126E07B69002BE1
:1050200005D1FA687B6913441B787B821AE07B699F
:10503000012B17D10021114808F0A6FA7A8AF968E5
:105040007B690B441B781B0242EA03007A8AF968E9
:105050007B690B441B781B0213431A4601460A481E
:1050600024F07AFB7B6901337B617A69BB689A42E1
:10507000D4D3002318461837BD4680BD90290308B5
:105080009CE1020878E10208E0E1020880B586B000
:1050900000AFF860B96011461A460B46FB80134614
:1050A0007B7100213A4808F06FFA7B79194639483C
:1050B00024F052FB0021364808F066FA364824F006
:1050C000D1FB00237B615AE07B69002B11D10021C9
:1050D0002F4808F059FAFA687B6913441B7819467F
:1050E000FA687B6913441B781A462C4824F034FB79
:1050F00042E07B69012B02D07B69032B05D1FA6862
:105100007B6913441B787B8236E07B69022B18D1C4
:1051100000211F4808F038FA7A8AF9687B690B4445
:105120001B781B0242EA03007A8AF9687B690B4408
:105130001B781B0213431A460146194824F00CFB46
:105140001AE07B69042B17D10021114808F01CFAE2
:105150007A8AF9687B690B441B781B0242EA0300D8
:105160007A8AF9687B690B441B781B0213431A4641
:1051700001460C4824F0F0FA7B6901337B617A69BF
:10518000BB689A42A0D3002318461837BD4680BD9D
:10519000B829030800E2020844E202084CE20208CF
:1051A00068E2020880E2020880B586B000AFF860CD
:1051B000B96011461A460B46FB8013467B710023EB
:1051C0007B8200215A4808F0DFF97B79194659485B
:1051D00024F0C2FA0021564808F0D6F9564824F0C7
:1051E00041FB00237B6198E07B69002B08D07B6941
:1051F000022B05D07B69042B02D07B69062B05D1DD
:10520000FA687B6913441B787B8283E07B69012BFE
:1052100018D10021464808F0B7F97A8AF9687B6905
:105220000B441B781B0242EA03007A8AF9687B6907
:105230000B441B781B0213431A4601463F4824F0D7
:105240008BFA67E07B69032B18D10021384808F0FE
:105250009BF97A8AF9687B690B441B781B0242EA46
:1052600003007A8AF9687B690B441B781B0213439D
:105270001A460146324824F06FFA4BE07B69052B51
:1052800018D100212A4808F07FF97A8AF9687B69E9
:105290000B441B781B0242EA03007A8AF9687B6997
:1052A0000B441B781B0213431A460146254824F081
:1052B00053FA2FE07B69072B18D100211C4808F016
:1052C00063F97A8AF9687B690B441B781B0242EA0E
:1052D00003007A8AF9687B690B441B781B0213432D
:1052E0001A460146184824F037FA13E07B69082B68
:1052F00010D100210E4808F047F9FA687B69134481
:105300001B781946FA687B6913441B781A460F48C4
:1053100024F022FA7B6901337B617A69BB689A4287
:10532000FFF462AF002318461837BD4680BD00BFAA
:10533000DC29030898E20208D0E20208D8E2020859
:10534000FCE2020824E3020848E302086CE30208D6
:1053500080B586B000AFF860B96011461A460B46BA
:10536000FB8013467B7100237B8200215A4808F0A2
:105370000BF97B791946594824F0EEF9002156487B
:1053800008F002F9564824F06DFA00237B6198E09A
:105390007B69002B08D07B69022B05D07B69042B2D
:1053A00002D07B69062B05D1FA687B6913441B7810
:1053B0007B8283E07B69012B18D10021464808F0ED
:1053C000E3F87A8AF9687B690B441B781B0242EA8E
:1053D00003007A8AF9687B690B441B781B0213432C
:1053E0001A4601463F4824F0B7F967E07B69032B72
:1053F00018D10021384808F0C7F87A8AF9687B6923
:105400000B441B781B0242EA03007A8AF9687B6925
:105410000B441B781B0213431A460146324824F002
:105420009BF94BE07B69052B18D100212A4808F035
:10543000ABF87A8AF9687B690B441B781B0242EA55
:1054400003007A8AF9687B690B441B781B021343BB
:105450001A460146254824F07FF92FE07B69072B87
:1054600018D100211C4808F08FF87A8AF9687B6906
:105470000B441B781B0242EA03007A8AF9687B69B5
:105480000B441B781B0213431A460146184824F0AC
:1054900063F913E07B69082B10D100210E4808F056
:1054A00073F8FA687B6913441B781946FA687B69BC
:1054B00013441B781A460F4824F04EF97B690133D8
:1054C0007B617A69BB689A42FFF462AF0023184699
:1054D0001837BD4680BD00BFF429030888E30208E1
:1054E000C8E30208FCE20208D0E3020848E302082D
:1054F000F4E30208D0E0020880B586B000AFF8609F
:10550000B96011461A460B46FB8013467B71002199
:105510003A4808F039F87B791946394824F01CF9E3
:105520000021364808F030F8364824F09BF9002373
:105530007B615AE07B69002B11D100212F4808F0D4
:1055400023F8FA687B6913441B781946FA687B696B
:1055500013441B781A462C4824F0FEF842E07B697D
:10556000012B02D07B69032B05D1FA687B691344B8
:105570001B787B8236E07B69022B18D100211F4803
:1055800008F002F87A8AF9687B690B441B781B02E1
:1055900042EA03007A8AF9687B690B441B781B0294
:1055A00013431A460146194824F0D6F81AE07B69DD
:1055B000042B17D10021114807F0E6FF7A8AF96819
:1055C0007B690B441B781B0242EA03007A8AF96864
:1055D0007B690B441B781B0213431A4601460C4897
:1055E00024F0BAF87B6901337B617A69BB689A421F
:1055F000A0D3002318461837BD4680BD182A0308DB
:1056000018E4020860E402084CE2020868E20208BA
:1056100080E2020880B586B000AFF860B96011463C
:105620001A460B46FB8013467B7100237B820021C8
:105630003F4807F0A9FF7B7919463E4824F08CF8D3
:1056400000213B4807F0A0FF3B4824F00BF9002362
:105650007B6164E07B69002B05D07B69022B02D063
:105660007B69042B05D1FA687B6913441B787B8224
:1056700052E07B69012B18D100212D4807F084FFEF
:105680007A8AF9687B690B441B781B0242EA0300A3
:105690007A8AF9687B690B441B781B0213431A460C
:1056A0000146264824F058F836E07B69032B18D1D0
:1056B00000211F4807F068FF7A8AF9687B690B446C
:1056C0001B781B0242EA03007A8AF9687B690B4463
:1056D0001B781B0213431A460146194824F03CF874
:1056E0001AE07B69052B17D10021114807F04CFF08
:1056F0007A8AF9687B690B441B781B0242EA030033
:105700007A8AF9687B690B441B781B0213431A469B
:1057100001460C4824F020F87B6901337B617A69EB
:10572000BB689A4296D3002318461837BD4680BD01
:10573000402A030868E40208A4E40208ACE4020872
:10574000C4E40208E0E4020880B586B000AFF86067
:10575000B96011461A460B46FB8013467B71002345
:105760007B8200214A4807F00FFF7B7919464948A0
:1057700023F0F2FF0021464807F006FF464824F0D8
:1057800071F800237B6179E07B69002B05D07B6990
:10579000022B02D07B69042B05D1FA687B69134484
:1057A0001B787B8267E07B69012B18D10021384888
:1057B00007F0EAFE7A8AF9687B690B441B781B02C2
:1057C00042EA03007A8AF9687B690B441B781B0262
:1057D00013431A460146314823F0BEFF4BE07B6974
:1057E000032B18D100212A4807F0CEFE7A8AF968E7
:1057F0007B690B441B781B0242EA03007A8AF96832
:105800007B690B441B781B0213431A46014624484C
:1058100023F0A2FF2FE07B69052B18D100211C4843
:1058200007F0B2FE7A8AF9687B690B441B781B0289
:1058300042EA03007A8AF9687B690B441B781B02F1
:1058400013431A460146174823F086FF13E07B698D
:10585000062B10D100210E4807F096FEFA687B69EE
:1058600013441B781946FA687B6913441B781A465F
:105870000D4823F071FF7B6901337B617A69BB6856
:105880009A4281D3002318461837BD4680BD00BF19
:10589000602A0308F8E4020830E5020838E5020847
:1058A00054E502086CE5020888E5020880B586B078
:1058B00000AFF860B96011461A460B46FB801346EC
:1058C0007B7100237B8200213A4807F05DFE7B79E3
:1058D0001946394823F040FF0021364807F054FEAE
:1058E000364823F0BFFF00237B615AE07B69002B21
:1058F00002D07B69022B05D1FA687B6913441B78BF
:105900007B824BE07B69012B18D10021294807F0ED
:105910003BFE7A8AF9687B690B441B781B0242EADA
:1059200003007A8AF9687B690B441B781B021343D6
:105930001A460146224823F00FFF2FE07B69032B14
:1059400018D100211B4807F01FFE7A8AF9687B698D
:105950000B441B781B0242EA03007A8AF9687B69D0
:105960000B441B781B0213431A460146154823F0CB
:10597000F3FE13E07B69042B10D100210D4807F0E2
:1059800003FEFA687B6913441B781946FA687B6941
:1059900013441B781A460C4823F0DEFE7B69013362
:1059A0007B617A69BB689A42A0D3002318461837F6
:1059B000BD4680BD782A0308A4E50208DCE502089C
:1059C000E4E5020800E6020888E5020880B586B032
:1059D00000AFF860B96011461A460B46FB801346CB
:1059E0007B7100237B8200213A4807F0CDFD7B7953
:1059F0001946394823F0B0FE0021364807F0C4FDAF
:105A0000364823F02FFF00237B615AE07B69002B8F
:105A100002D07B69022B05D1FA687B6913441B789D
:105A20007B824BE07B69012B18D10021294807F0CC
:105A3000ABFD7A8AF9687B690B441B781B0242EA4A
:105A400003007A8AF9687B690B441B781B021343B5
:105A50001A460146224823F07FFE2FE07B69032B84
:105A600018D100211B4807F08FFD7A8AF9687B69FD
:105A70000B441B781B0242EA03007A8AF9687B69AF
:105A80000B441B781B0213431A460146154823F0AA
:105A900063FE13E07B69042B10D100210D4807F051
:105AA00073FDFA687B6913441B781946FA687B69B1
:105AB00013441B781A460C4823F04EFE7B690133D1
:105AC0007B617A69BB689A42A0D3002318461837D5
:105AD000BD4680BD942A030818E6020858E602086D
