:020000040800F2
:1000000000000320A9070108650601086906010828
:100010007D0601087F060108810601080000000036
:10002000000000000000000000000000830601083E
:1000300085060108000000008706010889060108FE
:10004000FD070108FD070108FD0701088B060108EF
:10005000FD070108FD07010817070108210701082E
:10006000FD070108FD0701080D07010895060108B5
:10007000FD070108FD070108A5060108FD070108A5
:10008000FD070108FD070108FD070108FD0701083C
:10009000FD070108FD070108FD070108FD0701082C
:1000A000FD070108B5060108FD070108FD07010865
:1000B000FD070108FD070108FD070108FD0701080C
:1000C000FD070108FD070108FD070108FD070108FC
:1000D000C5060108D5060108FD070108FD0701084E
:1000E000FD070108FD070108FD070108FD070108DC
:1000F000E5060108ED060108F5060108FD070108FF
:10010000FD070108FD070108FD070108FD070108BB
:10011000FD070108FD070108FD070108FD070108AB
:10012000FD070108FD070108FD060108FD0701089C
:0C013000FD070108FD070108FD0701089C
:100140000348044B834202D0034B03B11847704766
:10015000840A0020840A00200000000005480649A7
:100160000B1AD90F01EBA301491002D0034B03B1C5
:1001700018477047840A0020840A0020000000000D
:1001800010B5064C237843B9FFF7DAFF044B13B1DF
:100190000448AFF300800123237010BDB40A00208F
:1001A000000000009CE0020808B5044B1BB10449A4
:1001B0000448AFF30080BDE80840CFE7000000002E
:1001C000B80A00209CE00208F8B52DED028B57EC30
:1001D000106B55EC114B00F003F9634BB0EE408A05
:1001E000F0EE608A93F9003001332AD022462B4684
:1001F000204629460EF0F2FA18BB32463B463046FE
:1002000039460EF0EBFA002844D100220023304694
:1002100039460EF0B1FAD8B1002200232046294613
:100220000EF0AAFA00283DD145EC104B00F048FF33
:1002300038B120462946002200230EF0A7FA0028F4
:100240005CD1B0EE480AF0EE680ABDEC028BF8BD56
:10025000B0EE480AF0EE680A00F032FF58B351ECF5
:10026000180B002200230EF087FA0028E9D047EC93
:10027000106B00F025FF0028E3D045EC104B00F098
:100280001FFF0028DDD001F089F822239FED2E8B7F
:100290000360D6E720462946002200230EF06CFAC0
:1002A0000028CED09FED2A8BB0EE480AF0EE680A07
:1002B000BDEC028BF8BD47EC106B00F001FF00288D
:1002C000CDD045EC104B00F0FBFE0028C7D053EC1E
:1002D000182B18EE100A19460EF080FA20BB01F018
:1002E0005DF8034622221A60304639460022002378
:1002F0000EF04CFA48B99FED188BA2E701F04EF8CA
:1003000021239FED178B03609BE745EC104B00F01A
:10031000EBFE224651EC100B2B460EF02DFA002876
:10032000E9D19FED0F8B8CE701F038F80022002314
:1003300021210160104619460EF0E0F841EC180B3F
:100340007FE700BFAFF30080000000000000000066
:10035000000000000000F03F000000000000F07FFF
:10036000000000000000F0FF7400002038B52DED03
:10037000028B55EC104B00F0CDFD184BB0EE408ACF
:10038000F0EE608A93F9003001330DD022462B46FF
:10039000204629460EF022FA30B9002200232046DA
:1003A00029460EF0F3F930B9B0EE480AF0EE680ACB
:1003B000BDEC028B38BD00F0F1FF002200232121AB
:1003C0000160104619460EF099F841EC180BB0EE9A
:1003D000480AF0EE680ABDEC028B38BD74000020BC
:1003E0002DE9F04F57EC116B2DED0C8B27F0004AE7
:1003F0005AEA060287B03DD055EC104B724925F001
:100400000048884510EE102AA9462CDC11EE103A5F
:10041000BB4636D08A4526DC6B498A4521D0B9F1E6
:10042000000F39DB00210091002B51D1664B9A451A
:1004300000F0A280654B9A4500F0B080BBF1804F80
:1004400000F0C084624B9B4542D1B9F1000F3FDB05
:1004500045EC104B07B0BDEC0C8BBDE8F04F00F045
:1004600059BD002BDBD008F1404808F5801858EA48
:10047000020309D19FED500B07B0BDEC0C8BBDE81A
:10048000F08F0CB9C245C7DD524807B0BDEC0C8BEC
:10049000BDE8F04F00F020BE4F498A4500F385804B
:1004A000A1F154718A450FDD4FEA2A51A1F2FF31C3
:1004B000142940F39B84C1F1340123FA01F000FABE
:1004C00001F1994200F0ED8400210091002BB1D0A0
:1004D00045EC104B029200F0E9FD029A5ABBB8F1CC
:1004E000000F04D0394B29F040429A4223D1BBF18E
:1004F000000F07DA53EC102B344900200DF0FEFFFB
:1005000041EC100BB9F1000FB6DA009B08F140483E
:1005100008F5801858EA030340F08D8453EC102B43
:10052000104619460DF008FD02460B460DF0E6FF99
:1005300041EC100BA0E7009A4FEAD973013B0493FA
:10054000134335D0254B9A454CDD03F104739A458E
:10055000234B40F3DB83984540F36083BBF1000FEE
:1005600040F3608316A3D3E90023104619460DF02B
:100570009BFE41EC100B7FE708F1404303F580132D
:1005800013433FF477AF164B984540F37A83BBF1A2
:10059000000FC0F2478347EC106B6DE7BBF1000F13
:1005A000C0F21A8445EC104B66E7022100913BE74C
:1005B00022462B46B4E700BF000000000000F03FD9
:1005C0009C7500883CE4377E0000F07F0000F03F1F
:1005D0000000E03FCC2E0308FFFF3F430000E04156
:1005E000FFFFEF3FE44B09EA0303002253B951EC4C
:1005F000100BE24B0DF058FE41EC100B10EE908A00
:100600006FF034024FEA2853A3F2FF339A18DC4B01
:100610000592C8F3130848F07F54984544F44014F9
:1006200007DDD84B984540F3148401320592A4F5B8
:1006300080149FEDB96B9FEDBA7B53EC162BB0EE97
:1006400047CAF0EE67CA0025B0EE47DAF0EE67DA87
:100650005BEC10ABA3465046594643EC1A2B0DF009
:100660006BFC53EC1A2B80468946504659460DF0D8
:1006700065FC02460B460020C3490DF03FFF41ECEC
:100680001B0B404653EC1B2B49460DF00DFE41EC75
:10069000180B0A460146CDE90212002102916410AE
:1006A0004BEC19AB44F00054DDE902AB04F5002338
:1006B0000020591904460D4602460B46504659463D
:1006C0000DF0F2FD02460B46404649460DF034FC63
:1006D00053EC1A2B80468946204629460DF02CFC07
:1006E00002460B4651EC190B0DF026FC52465B46B8
:1006F0000DF0DAFD02460B46404649460DF01CFC63
:1007000053EC1B2B0DF0D0FD53EC182B41EC190BC7
:1007100051EC180B0DF0C8FD83A3D3E90023044668
:100720000D460DF0C1FD82A3D3E900230DF006FCB8
:1007300022462B460DF0B8FD7FA3D3E900230DF030
:10074000FDFB22462B460DF0AFFD7DA3D3E9002330
:100750000DF0F4FB22462B460DF0A6FD7AA3D3E95B
:1007600000230DF0EBFB22462B460DF09DFD78A3F8
:10077000D3E900230DF0E2FB2246804689462B4652
:10078000204629460DF090FD02460B46404649465C
:100790000DF08AFD524604460D465B4651EC180B9F
:1007A0000DF0CCFB53EC192B0DF07EFD22462B46B1
:1007B0000DF0C4FB5246804689465B46504659467A
:1007C0000DF072FD02460B4643EC1A2B6F4B0022D4
:1007D0000DF0B4FB42464B460DF0B0FB00240D4635
:1007E00022462B46504659460DF05EFD674B824629
:1007F0008B460022204629460DF09EFB53EC1A2B17
:100800000DF09AFB02460B46404649460DF094FB1C
:1008100053EC182B0DF048FD22462B4604460D469E
:1008200051EC190B0DF040FD02460B4620462946BF
:100830000DF084FB8046894642464B465046594659
:100840000DF07CFB44A3D3E90023002004460D46B1
:100850000DF02AFD524641EC190B5B462046294615
:100860000DF06AFB02460B46404649460DF064FB1C
:100870003BA3D3E900230DF017FD02460B462046AB
:10088000294614461D4638A3D3E900230DF00CFD7C
:1008900002460B46204629460DF050FB53EC1D2B1B
:1008A0000DF04CFB8046059889460DF093FC4246BE
:1008B00082468B464B4651EC190B0DF03FFB53EC37
:1008C0001C2B0DF03BFB52465B460DF037FB5246AE
:1008D0005B46002004460D460DF02EFB53EC1C2B0E
:1008E0000DF02AFB53EC192B0DF026FB02460B46AC
:1008F000404649460DF020FB009B049A013B134300
:1009000082468B4640F0B6819FED197BB0EE478A58
:10091000F0EE678A3CE000BF000000000000F03FFE
:100920000000000000000000EF4E454A287ECA3F4C
:1009300065DBC9934A86CD3F01411DA96074D13F53
:100940004D268F515555D53FFFAB6FDBB66DDB3F65
:10095000033333333333E33F000000E009C7EE3F96
:10096000FD033ADC09C7EE3FF5015B14E02F3EBE04
:10097000000000000000F0BF0000F07F00004043D6
:100980008E98030079B60B000000F03F000008408D
:100990000023CDE900670093DDE900893046424637
:1009A0004B4639460DF0C8FA22462B460DF07CFC2A
:1009B00032463B4606460F46504659460DF074FCFB
:1009C00002460B46304639460DF0B8FA42464B46D1
:1009D00006460F46204629460DF066FC04460D46A5
:1009E0002B463046394622460DF0A8FAC24B9942B2
:1009F000804689468A4640F3188101F13F4303F55A
:100A0000E003034340F00782A3A3D3E90023304669
:100A100039460DF093FA02460B4640464946904649
:100A2000994622462B460DF087FA02460B46404671
:100A300049460DF0C9FE002840F0ED81CAF30A5383
:100A40004FF48012A3F2FE3342FA03F35344AB494E
:100A5000C3F30A52A2F2FF3241FA02FCC3F31301BC
:100A600041F48011C2F1140241FA02F2002023EA9B
:100A70000C01BAF1000F00920B46024602DA00990F
:100A800049420091204629460DF056FA009B1B056D
:100A9000029302460B4604460D46304639460DF099
:100AA0004DFA89464FF000087DA3D3E90023404664
:100AB00049460DF0F9FB22462B4682468B464046BE
:100AC00049460DF039FA02460B46304639460DF0DC
:100AD00033FA75A3D3E900230DF0E6FB74A3D3E941
:100AE000002304460D46404649460DF0DDFB024614
:100AF0000B46204629460DF021FA06460F4632469F
:100B00003B46504659460DF019FA52465B4604469C
:100B10000D460DF011FA02460B46304639460DF0EF
:100B20000BFA2246804689462B46204629460DF080
:100B3000BBFB61A3D3E9002306460F460DF0B4FBCF
:100B40005FA3D3E900230DF0F7F932463B460DF0E1
:100B5000ABFB5DA3D3E900230DF0F0F932463B4631
:100B60000DF0A2FB5AA3D3E900230DF0E5F93246BC
:100B70003B460DF099FB58A3D3E900230DF0DEF9B5
:100B800032463B460DF090FB02460B462046294676
:100B90000DF0D2F906460F4632463B46204629461E
:100BA0000DF082FB02460B463046394616461F467C
:100BB00000224FF080430DF0BFF902460B4630464D
:100BC00039460DF09BFC424606460F464B462046F2
:100BD00029460DF069FB42464B460DF0AFF902463F
:100BE0000B46304639460DF0A7F922462B460DF04C
:100BF000A3F902460B46002041490DF09DF9029AE7
:100C00000B461344B3F5801FC0F24381194653ECE1
:100C1000182B0DF049FB41EC100B2DE4BBF1000F3C
:100C2000FFF6A0AC9FED2E0B26E4DFF8DCC021F030
:100C30000043634540F3E780324B0B4403430AD142
:100C400022462B460DF078F932463B460DF0B2FDB8
:100C500000283FF4F3AE24A3D3E9002351EC180B92
:100C60000DF022FB20A3D3E900230DF01DFB41EC86
:100C7000100B01E49FED1E7BB0EE478AF0EE678A11
:100C800086E6BBF1000FCDDA07F1004300EE106AF3
:100C900000EE903AFFF7F0BBFE822B654715973CBC
:100CA00000000000432EE63FEF39FAFE422EE63FF9
:100CB000396CA80C615C20BED0A4BE726937663E58
:100CC000F16BD2C541BDBB3E2CDE25AF6A56113F4C
:100CD00093BDBE166CC1663F3E5555555555C53F33
:100CE000000000000000000059F3F8C21F6EA501CB
:100CF000000000000000F03FFFFF8F40FFFF0F00EB
:100D00000000F03F00346F3FFFCB9040984585DBFB
:100D10007D4B98453FF722AC51EC100B7A4B0022EB
:100D20000DF00AF968A3D3E9002304460D460DF03F
:100D3000BBFA67A3D3E9002382468B4620462946A7
:100D40000DF0B2FA714B41EC180B002220462946F7
:100D50000DF0AAFA02460B465FA1D1E900010DF0A1
:100D6000EBF822462B460DF09FFA02460B46002078
:100D700067490DF0E1F82246804689462B46204619
:100D800029460DF091FA02460B46404649460DF0C1
:100D90008BFA53A3D3E900230DF086FA02460B46E3
:100DA00051EC180B0DF0C8F88046894642464B4678
:100DB000504659460DF0C2F8002052465B460446A4
:100DC0000D4691E522462B46204629460DF06CFA49
:100DD00041EC100BFFF750BB4B49002022462B463D
:100DE0000DF08CFB41EC100BFFF746BB002B44D100
:100DF000C1F114014AFA01F000FA01F151455AD04B
:100E00000093FFF717BB424A93425BDCDDE9001217
:100E10000291009146E634A3D3E9002351EC180B6C
:100E20000DF042FA30A3D3E900230DF03DFA41EC76
:100E3000100BFFF721BB009B012B7FF41DAB10EEC5
:100E4000901A10EE102A01F1004343EC102BFFF72B
:100E500013BB9FED277BB0EE47CAF0EE67CA9FED4C
:100E6000267BB0EE47DAF0EE67DA9FED257B4FF494
:100E7000802553EC172BFFF7EBBB45EC104B009292
:100E800000F014F9009A002A7FF492AB0092FFF769
:100E900026BB41EC100B009800F0C2F951EC100B8E
:100EA000B5E600F00100C0F102010091002B3FF413
:100EB000C1AAFFF70DBB00F00100C0F102030093CF
:100EC000FFF7B8BA1B15BBE5000000604715F73FF8
:100ED00044DF5DF80BAE543E555555555555D53F3D
:100EE000FE822B654715F73F9C7500883CE4377EF2
:100EF0000000004003B8E23F06D0CF43EBFD4C3E7C
:100F0000000000000000F83F0000F03F0000D03F6C
:100F10000000E03F2DE9F041634A55EC104BAA4335
:100F200000F09F80002D10EE10CA2B4654DD2915CD
:100F300063D0C3F31303A1F2FF37C90743F480134F
:100F400004D45B0003EBDC734FEA4C0C4FEADC7219
:100F5000002602EB43037F104FEA4C0C4FF0160EB5
:100F600034464FF40012A118994202DC5B1A8C1827
:100F700016445B00BEF1010E03EBDC734FEA520234
:100F80004FEA4C0CEFD1754620204FF000420AE0AA
:100F900044D04FEADC71013801EB43034FEA4C0CBB
:100FA0004FEA520243D0A34202EB0E01F0DD0029CA
:100FB00001EB020E0ADBA0461B1B614588BF03F153
:100FC000FF33ACEB010C15444446E2E7BEF1000FE1
:100FD000F1DB04F10108EFE725F00042224338D0AD
:100FE000002D4ED129464FEADC22153913464FEA2F
:100FF0004C5C002AF7D0D60250D400205B00DD0202
:10100000044600F10100F9D51A4663460CFA00FCCB
:10101000C0F12000C340091B13438AE76145B8D8DB
:10102000002901EB020ED1DB98460023C9E753EA01
:101030000C0310D168087110F30701F17F5101F51D
:10104000001148BF40F0004001EB0753024643EC5B
:10105000102BBDE8F0816A1C16BF681C01364008E1
:10106000E9E710EE102A10EE100A2B4629460DF083
:101070001BF922462B460CF061FF41EC100BBDE83A
:10108000F08110EE102A204629460CF055FF02464A
:101090000B460DF033FA41EC100BDAE763462020E3
:1010A0004FF0FF34B6E700BF0000F07F51EC100BAB
:1010B00010EE102A21F0004343EC102B704700BFC4
:1010C00082B08DED000B019840F0004000F58010DB
:1010D000C00F02B0704700BF9FED010B704700BF0B
:1010E000000000000000F87FF0B553EC102BC3F3B4
:1010F0000A5CACF2FF31132910EE100A83B01C46D3
:101100004FEAD37E3ADC002930DB424D45FA01FC40
:1011100003EA0C0515432DD003EA5C0318434FEA9C
:101120005C0C0CD024EA0C0C4FF48024132944FAF4
:1011300001F10CBF4FF0004000204CEA0104364999
:1011400001EBCE0E2346DEE9004502462946204645
:101150000CF0F4FECDE90001DDE9000122462B464A
:101160000CF0EAFE41EC100B03B0F0BD23F000419F
:10117000114324D143EC102B03B0F0BD332908DD1B
:10118000B1F5806FF6D119460CF0D8FE41EC100B8A
:10119000F2E7ACF2134C4FF0FF3121FA0CF10A42A6
:1011A000E8D010EA51024FEA5103C8D020EA030305
:1011B0004FF0804040FA0CFC43EA0C00BFE7C3F359
:1011C00013031843144A4342034302EBCE0E1B0B96
:1011D000620C03F40023520443EA02073B46DEE9B3
:1011E000006710EE102A304639460CF0A7FECDE914
:1011F000000132463B46DDE900010CF09DFE04F0A3
:10120000004421F00041024641EA040343EC102B64
:1012100003B0F0BDFFFF0F0080F3020800000000E4
:1012200038B553EC102BC3F30A5104469C4689BBD6
:1012300010EE101A23F0004C5CEA010129D0194687
:1012400000223D4B3D4D10EE100A0DF02DF8AC4242
:1012500002460B4616DB8C46C1F30A51363921444F
:1012600040F2FE70814221DC002947DC11F1350F8C
:1012700034DA4CF250318C4218DC002B26A1D1E933
:10128000000144DB24A3D3E900230DF00DF841EC69
:10129000100B38BD40F2FF708142E0D110EE100A11
:1012A00019460CF04BFE41EC100B38BD002B1CA175
:1012B000D1E9000107DB1AA3D3E900230CF0F4FF06
:1012C00041EC100B38BD18A1D1E9000114A3D3E9FA
:1012D00000230CF0E9FF41EC100BF3E72CF0FF4C7E
:1012E0002CF4E00C36314CEA01531046194600222A
:1012F000134B0CF0D9FF41EC100B38BD2CF0FF4C18
:101300002CF4E00C4CEA015343EC102B38BD08A13F
:10131000D1E90001B6E700BF59F3F8C21F6EA5017D
:101320009C7500883CE4377E9C7500883CE437FE61
:1013300059F3F8C21F6EA58100005043B03CFFFF77
:101340000000903C00B50B4C25681446EE681A4628
:1013500085B003460D464CB107490095CDE901140F
:101360003046064900F044F803F0D8FE04490C4624
:10137000F3E700BF7800002090400308A040030876
:10138000CC2E030808B513460022FFF7DBFF00BF91
:10139000002301461A46184603F08CBE014B18681C
:1013A000704700BF7800002038B5084B084D5B1B24
:1013B0009C1007D0043B1D44013C55F80439984764
:1013C000002CF9D1BDE838402CF06EBE184203085D
:1013D000144203080CB400B583B004AB53F8042BDB
:1013E000019301F0BFFC03B05DF804EB02B070475D
:1013F0000EB410B583B005AB064C53F8042B019323
:101400000146206801F0AEFC03B0BDE8104003B017
:10141000704700BF7800002070B50D4E0D4D761B53
:10142000B61006D0002455F8043B01349847A64274
:10143000F9D1094E094D761B2CF030FEB61006D0BE
:10144000002455F8043B01349847A642F9D170BDF9
:101450000C4203080C420308144203080C42030820
:1014600001F0FF01102A2BDB10F0070F08D010F855
:10147000013B013A8B422DD010F0070F42B3F6D159
:10148000F0B441EA012141EA014122F007047FF072
:1014900000070023F0E80256083C85EA010586EAC9
:1014A000010685FA47F5A3FA87F586FA47F6A5FA05
:1014B00087F68EB9EED1F0BC01F0FF0102F0070211
:1014C00032B110F8013B013A83EA010313B1F8D1BC
:1014D0000020704701387047002D06BF354603389D
:1014E000073815F0010F07D1013015F4807F02BFD6
:1014F000013015F4C03F0130F0BC0138704700BF27
:10150000032A70B515D940EA010C1CF0030F0446FC
:101510000B4621D1194620460E680568B54204F1F4
:10152000040403F1040317D1043A032A20461946A0
:10153000F0D8541EA2B100F1FF3C013901E0C318FC
:101540000CD01CF801EF11F8012F9645A4EB0C0309
:10155000F5D0AEEB020070BD541EECE7184670BD2E
:10156000104670BD844641EA000313F003036DD1B9
:10157000403A41D351F8043B40F8043B51F8043B56
:1015800040F8043B51F8043B40F8043B51F8043B5D
:1015900040F8043B51F8043B40F8043B51F8043B4D
:1015A00040F8043B51F8043B40F8043B51F8043B3D
:1015B00040F8043B51F8043B40F8043B51F8043B2D
:1015C00040F8043B51F8043B40F8043B51F8043B1D
:1015D00040F8043B51F8043B40F8043B51F8043B0D
:1015E00040F8043B51F8043B40F8043B51F8043BFD
:1015F00040F8043B403ABDD2303211D351F8043B9D
:1016000040F8043B51F8043B40F8043B51F8043BDC
:1016100040F8043B51F8043B40F8043B103AEDD24B
:101620000C3205D351F8043B40F8043B043AF9D29C
:10163000043208D0D2071CBF11F8013B00F8013B6F
:1016400001D30B8803806046704700BF082A13D37C
:101650008B078DD010F003038AD0C3F10403D21A94
:10166000DB071CBF11F8013B00F8013B80D331F8C8
:10167000023B20F8023B7BE7043AD9D3013A11F848
:10168000013B00F8013BF9D20B7803704B784370B3
:101690008B7883706046704788420DD98B188342DF
:1016A0000AD900EB020CBAB1624613F801CD02F878
:1016B00001CD9942F9D170470F2A0ED8034602F1A5
:1016C000FF3C4AB10CF1010C013B8C4411F8012B99
:1016D00003F8012F6145F9D1704740EA01039B07E8
:1016E00050D1A2F1100370B501F1200C23F00F05C9
:1016F00001F1100E00F11004AC441B095EF8105CFF
:1017000044F8105C5EF80C5C44F80C5C5EF8085C15
:1017100044F8085C5EF8045C44F8045C0EF1100EBA
:10172000E64504F11004E9D1013312F00C0F01EB8E
:10173000031102F00F0400EB031327D0043C24F044
:1017400003064FEA940C1E441C1F8E465EF8045B91
:1017500044F8045FB442F9D10CF1010402F0030231
:1017600003EB840301EB840102F1FF3C4AB10CF16D
:10177000010C013B8C4411F8012B03F8012F61454A
:10178000F9D170BD02F1FF3C03469BE72246EBE72F
:10179000830730B548D0541E002A3FD0CAB2034652
:1017A00001E0013C3AD303F8012B9D07F9D1032C4A
:1017B0002DD9CDB245EA05250F2C45EA054536D988
:1017C000A4F1100222F00F0C03F1200EE6444FEAC0
:1017D000121C03F1100242E9045542E9025510328D
:1017E0007245F8D10CF1010214F00C0F03EB021258
:1017F00004F00F0C13D0ACF1040323F00303043303
:10180000134442F8045B9342FBD10CF003042CB167
:10181000CAB21C4403F8012B9C42FBD130BD644684
:101820001346002CF4D1F9E703461446BFE71A46E5
:10183000A446E0E70EB400B582B003AB816853F86C
:10184000042B019302F0E8F802B05DF804EB03B05A
:10185000704700BF0FB400B5074983B004AB0868F8
:1018600053F8042B8168019302F0D6F803B05DF8B9
:1018700004EB04B0704700BF7800002070B5044648
:1018800088B008460D4600F0DBF8154EA26B0590B7
:1018900001214318CDE9066104A8022104950393B0
:1018A000A56801900291B2B1B5F90C309A0406D442
:1018B0006A6E43F4005322F40052AB816A6601AAB7
:1018C0002946204605F03AF8002814BF4FF0FF30B3
:1018D0000A2008B070BD204604F02EFEE4E700BFE9
:1018E000F4100308024B01461868FFF7C7BF00BF9A
:1018F000780000200EB410B59FB021AC4FF40171F8
:1019000054F8042B0192ADF81C100490089000F0DC
:1019100097F8059009900B480B490C9100234FF65E
:10192000FF7C10931593019A0068ADF81EC0234602
:1019300004A9039400F032F91FB0BDE8104003B0D1
:10194000704700BF78000020C91900080CB430B5FA
:101950009FB022AC4FF4017354F8042B019205465A
:101960000846ADF81C300491089100F069F80C4964
:101970000C910346059309934FF6FF7100231093D2
:101980001593ADF81E10019A03942846234604A926
:1019900000F004F91FB0BDE8304002B0704700BF4E
:1019A000C919000810B50C46B1F90E1006F000FB7D
:1019B000002803DB236D0344236510BDA38923F4B2
:1019C0008053A38110BD00BF002070472DE9F04176
:1019D0000C46B1F90C101F46CB05054616460BD434
:1019E00021F48051A1813B46B4F90E1032462846BD
:1019F000BDE8F04103F0DEBAB4F90E100223002274
:101A000005F0B6F9B4F90C10EAE700BF10B50C46C2
:101A1000B1F90E1005F0ACF9A389421C0EBF23F4F6
:101A2000805343F480532065A38110BDB1F90E109B
:101A300003F07CBB0000000000000000000000007C
:101A400090F800F06DE9024520F007016FF0000CFE
:101A500010F0070491F820F040F049804FF00004A6
:101A60006FF00700D1E9002391F840F000F1080081
:101A700082FA4CF2A4FA8CF283FA4CF3A2FA8CF3B9
:101A80004BBBD1E9022382FA4CF200F10800A4FA20
:101A90008CF283FA4CF3A2FA8CF3E3B9D1E9042374
:101AA00082FA4CF200F10800A4FA8CF283FA4CF3AB
:101AB000A2FA8CF37BB9D1E9062301F1200182FA65
:101AC0004CF200F10800A4FA8CF283FA4CF3A2FA6B
:101AD0008CF3002BC6D0002A04BF04301A4612BA79
:101AE000B2FA82F2FDE8024500EBD2007047D1E97C
:101AF000002304F00305C4F100004FEAC50514F00B
:101B0000040F91F840F00CFA05F562EA05021CBFDB
:101B100063EA050362464FF00004A9E7A2B330B5BB
:101B200040EA0104A40784460B462AD09CF8000032
:101B30000C7884422FD1012A0DD0E64660B11EF800
:101B4000010F11F8014F6FEA0E03A042134422D196
:101B50001CEB0303F2D1002030BD0468194653F892
:101B6000045BA4F1013EAC4284462EEA040E00F16F
:101B700004000BD1043A84461946ECD01EF0803F95
:101B8000E9D1032AE9D8D1E7104670479CF8000054
:101B90000C78A042D1D0001B30BD00BF2DE9F04F22
:101BA0008B46B1F90C10ADF5317D8E04814608935A
:101BB00009D4DBF8643041F4005123F40053ABF84E
:101BC0000C10CBF8643092461AF8012B1392002ABD
:101BD00000F02A870023734F09930A9307939846CE
:101BE0000493BB5C13F0080372D1252A60D19AF8E4
:101BF00000001E461D46A0F125020AF10101532AEC
:101C000061D8DFE812F054006000600060006000FE
:101C1000710460006000600060006000AE00AE0013
:101C2000AE00AE00AE00AE00AE00AE00AE00AE0044
:101C300060006000600060006000600060006000A4
:101C4000600060000D04BA006000BA00600060002F
:101C50006000600032046000600004046000600006
:101C6000600060006000600060006000A103600030
:101C700060001604600060006000600060006000AA
:101C8000600020040F04BA00BA00BA003C04460405
:101C9000600060004D0460005A04060425046000E2
:101CA0006000280460002B0460006000A1038A46E5
:101CB000DBF80430002B3DDDDBF800301AF8012C96
:101CC0001978914225D004980DF5317DBDE8F08F4B
:101CD000DBF804200EE0DBF800301A78BA5C150758
:101CE00003F101030ED5DBF80420013ACBE9003201
:101CF00008F10108002AEEDC5946484608F0B8FA17
:101D00000028E8D01AF8012B1392002A7FF469AF5B
:101D1000D9E70133CBF80030DBF80430013BCBF8D6
:101D200004301AF8012B139208F10108002A7FF4FD
:101D300058AFC8E75946484608F09AFA0028BBD081
:101D4000049A002A00F0CE86BBF80C3013F0400F46
:101D500018BF4FF0FF32049204980DF5317DBDE8B5
:101D6000F08F16F08F0FAED105EB850500EB450522
:101D7000303D9AF801008A463DE78A460424DBF8A4
:101D80000420002A40F3EE82720640F1F782621EC0
:101D9000032A00F2E786DFE812F0CC018701D300C6
:101DA000070000BFF9F302084846039304F0D8FF88
:101DB0006A1E03680D93B2F5AE7F039B40F2F48375
:101DC0006FF4AE7C05EB0C02109240F25D15002220
:101DD00058A946F4F0660B910C46CDF838A0594648
:101DE0001192CB460F9206920C9203969A46914618
:101DF00008680278A2F12B0CBCF14E0F50D8DFE836
:101E00001CF0E6014F00E6014F004F008C029700E6
:101E1000970097009700970097009700970097000A
:101E20004F004F004F004F004F004F004F00DF01A9
:101E30004F004F004F00680261024F004F00070241
:101E40004F004F004F004F00EE014F004F004F007A
:101E50004F004F00D8014F004F004F004F00D101FD
:101E60004F004F004F004F004F004F004F00DF0169
:101E70004F004F004F00680261024F004F00070201
:101E80004F004F004F004F00EE014F004F004F003A
:101E90004F004F00D8014F004F004F004F00D101BD
:101EA0000D9B93F800C0944516D1039B9E0513D556
:101EB00023F420730393069B0C9304F8012B013D3C
:101EC0004A68013A002A08F101084A6040F3258374
:101ED00001300860002D8BD14A46D9468B460699C1
:101EE000039E5346DDF838A0002940F05A83013A9A
:101EF000012A40F2E9855A1E062A00F2A281022B2D
:101F000040F21986032B00F09C81043BDBB2DD43D9
:101F10000393254414F8011D5A46484608F068F911
:101F2000A542F7D1039B08F1FF38A8EB030888E12D
:101F300019EB0A0FD0D1039B23F4C0730393BCE7C2
:101F40006B1EB3F5AE7F40F222836FF4AE72AB1816
:101F5000069340F25D1558AC00235946D346C2465D
:101F6000DDF81C800B9446F4586603930A681078D9
:101F7000A0F12B034D2B60D8DFE813F03B025F008C
:101F80003B025F005F00BF02C901C901C901C9016D
:101F9000C901C901C901410241025F005F005F0040
:101FA0005F005F005F005F004E004E004E004E007D
:101FB0004E004E005F005F005F005F005F005F004B
:101FC0005F005F005F005F005F005F005F005F0019
:101FD0005F005F005F002E025F005F005F005F0038
:101FE0005F005F005F005F004E004E004E004E003D
:101FF0004E004E005F005F005F005F005F005F000B
:102000005F005F005F005F005F005F005F005F00D8
:102010005F005F005F002E02B8F10A0F0DDD26F4AD
:10202000386604F8010B4B68013B002B4B6040F312
:10203000808201320A60013D98D1F005CDF81C8004
:10204000D046DA468B4607D50B9B9C4200F2B08403
:102050000B9B9C423FF437AE16F0100240F07A82A0
:102060000B99079B099D22704846A847B10600F1CD
:102070006982720700F1358416F0010240F0628235
:10208000B30740F15F82AE4B099999424846079BDE
:102090000B9900F03C8507F0F1FE089B53F8042BE8
:1020A0000893C2E9000152E2002D08BF4FF0FF354E
:1020B000F10700F18382F10640F13183DBF8003053
:1020C0001A78BA5C12073FF51DAE0133CBF8003029
:1020D000DBF80430012D03F1FF33CBF8043008BFE7
:1020E00008F101083FF40EAE012412E0DBF80030E5
:1020F0001A78BA5C160703F1010312D4CBF800304A
:10210000DBF804300134013BA542CBF8043000F089
:102110006784002BEADC5946484608F0A9F80028F5
:10212000E4D0A0441AF8012B1392002A7FF459AD91
:10213000C9E5002D08BF4FF0FF35F20700F13783E6
:10214000F00640F1A182DBF8003018AE1A78B25CDC
:10215000002A3FF4B8AD0133CBF80030DBF804308F
:10216000012D03F1FF33CBF8043011D1D9E7DBF8AF
:1021700000301A78B25C0133002AD2D0CBF800309C
:10218000DBF804300134013BA542CBF80430C8D061
:10219000002BECDC5946484608F06AF80028E6D0E7
:1021A000A044BFE7BAF1070F7FF496AE4FF0080ADC
:1021B00083E6BAF1060F7FF48FAE4FF0070A7CE694
:1021C000B9F1010F7FF488AE4FF0020975E6039B69
:1021D0001E067FF581AE23F0800303936DE6B9F10F
:1021E000000F40F0CD81069B33B9039B03F4E06CF4
:1021F000BCF5E06F00F0FE83BAF1010F03D0BAF135
:10220000040F7FF469AE0AF1010A5FFA8AFA54E614
:10221000BAF1000F40F0AB81069B002B40F0BA8171
:10222000039B03F4E06CBCF5E06F00F0DC834A46EE
:10223000013A012AD946039EDDF838A08B4640F2C8
:102240004384F00513D5710500F1518414F8011C85
:10225000652904F1FF3308F1FF3502D0452940F02C
:1022600033835A464846A8461C4607F0C1FF16F07D
:1022700010027FF447AD06F4C063B3F5806F22709F
:1022800000F09F830F9B002B40F0518300220B999D
:10229000484607F09DFBF20755EC104B02D4B307FC
:1022A00040F12583089B53F8042BC2E900450893AD
:1022B000049B1AF8012B139201330493002A7FF434
:1022C00090AC00E5BAF1020F7FF406AE4FF0030ABE
:1022D000F3E5039B03F4A06CBCF5806F06D05E05AC
:1022E0007FF5FAAD069B002B00F0E583039B9B0571
:1022F00004D4069B0C9E11949B1B0F93039B23F409
:10230000F06646F4C073039300230693D5E50D4BA6
:1023100026F4386633F9188083E6039BDE057FF5E3
:1023200007AE23F080030393069B01330693109BB3
:10233000002B3FF4C4AD109B013B1093C0E500BFE0
:10234000ED9F000894F3020846F40076984A09923B
:1023500010220792DBF80420002A8A464FF003047B
:102360003FF712AD59464846039307F081FF039BA0
:1023700000287FF4E5AC72063FF509ADDBF80010EC
:102380000A78BA5C10077FF502AD03935B460A46F4
:10239000C346A0461C4604E022601378FB5C190784
:1023A00014D56368013B002B0BF1010B636002F154
:1023B0000102F1DC2146484607F05AFF002840F0B0
:1023C000F38122681378FB5C1907EAD42246039B49
:1023D0004446D8469346DAE406F4C063B3F5007F7A
:1023E0007FF42BAE26F4007646F4A0664FF010087A
:1023F00017E633067FF521AE26F0800611E66D4B19
:1024000033F91880B8F1080F3FF709AE15E646F02A
:102410000106674A099208228A4607920324AEE41D
:1024200046F00106644A09920A228A46079203246A
:10243000A5E418A8039305F0CFFF46F04006039BE0
:10244000824601249BE446F040068A46002496E436
:1024500046F408767AE78A46022490E4544A0992C0
:102460000A228A460792032489E430077FF42BACC2
:102470009AF8010046F002068A46FFF7BCBB320715
:102480007FF421AC9AF8010046F004068A46FFF773
:10249000B2BB494A099200228A46079203246EE49D
:1024A00034077FF410AC9AF801006C2800F0908299
:1024B00046F001068A46FFF79EBBF30600F1FE8157
:1024C000750700F12B82F40700F1B182B00740F1EB
:1024D000AE82089B53F8042B08934FEAE8738A46B0
:1024E000C2F8008053600DE435437FF4ECAB9AF8FA
:1024F000010010268A46FFF77EBB33057FF591ADBC
:10250000B8F1000F03D146F400764FF008087305C8
:1025100040F1C88126F4B06683E55846059107F07E
:10252000A7FE059900287FF4D7AC002D7FF460AC9E
:10253000D2E44846059107F09BFE059900283FF438
:102540007AAD7AE5089B53F8042B10600893049B3E
:10255000013304930B9B1AF8012B1392E41A039B8B
:1025600023449844002A7FF43CABFFF7ACBBBAF19C
:10257000030F3FF448AEBAF1050F3FF444AEABE4AD
:10258000B9F1020F7FF438AE4FF0030995E4002350
:102590000693E0E45346039EDDF838A04A46D94648
:1025A0008B4626F48076A2E4002210920FE400BF4E
:1025B000ED9F000894F30208A59C000816F0100691
:1025C00040F07F81089B53F8042B03920893DBF8BB
:1025D00000301B78FB5C13F0080440F0DF810596A7
:1025E000CDF818A004F094FBA0422E463FF4A8AB0F
:1025F000DBE9003213F8011B013ACBE900320A9BF8
:1026000058A8032B015504F1010A16AD02D12B681D
:10261000042B04D0082200212846FFF7B9F858AA55
:10262000039900955346484604F002FF421C0A9065
:102630003FF486AB002840F0E481039A106004F078
:1026400039FB002840F00B82D044013E059B002B53
:1026500040F01882039A043203929A46DBF8043061
:10266000002B40F3ED81DBF800301B78FB5C180792
:1026700000F19281002E00F08F8104F049FB544656
:10268000A042B5D1FFF75CBBDBF8002008991378B6
:1026900051F8040B039018AE0591F35C002B3FF446
:1026A00012ABDBF80430013BCBF80430531CCBF801
:1026B00000300446137804F8013B012D21D0054475
:1026C00011E0DBF800301A78B25CD2B1DBF80420FC
:1026D000013ACBF804205A1CCBF800201B7804F8F0
:1026E000013BAC420DD0DBF80430002BE9DC59464D
:1026F000484607F0BDFD0028E3D0039BA3423FF40A
:102700001FAB039BE61A3FF4DEAA049B013304933C
:10271000059B08930023B0442370FFF7F3BA089B8E
:102720001A46DBF8003052F8046B03921A78BA5C50
:10273000100700F1EA81DBF80420013ACBF804200D
:102740005A1CCBF8002034461B7804F8013B012DBD
:1027500000F0E181354412E0DBF800301A78BA5C11
:10276000110716D4DBF80420013ACBF804205A1CD8
:10277000CBF800201B7804F8013BAC4209D0DBF811
:102780000430002BE8DC5946484607F071FD00286C
:10279000E2D0A61BB044049B01330493039B08932F
:1027A00000232370FFF7AEBAA346FFF7C9BA16F0AD
:1027B00010030B9340F09280089B53F8042B039274
:1027C0000893CDE905580A9CCDF830A0002604F006
:1027D0009FFAB0423FF4B4AADBE9003258A813F8DC
:1027E000011B8155013A032CCBE9003206F1010AA5
:1027F0000DF1500803D1D8F80030042B04D0082282
:1028000000214046FEF7C4FF039DCDF800805346EB
:1028100058AA2946484604F00BFE431C04463FF4E0
:102820008FAA002840F097802860054616AB082242
:10283000002118460A93FEF7ABFFB8490A9BD1F86E
:10284000E0102A4648460D4612A9A847012800F084
:102850009A80002218AB9B5C002B00F01681069B2F
:10286000032C5344069300F09180059B013B059394
:102870000B9B13B9039B04330393DBF80430002B49
:102880004FF0000670DD059B002BA0D1DDF818800D
:10289000DDF830A00A940B9B002B7FF433AA039A37
:1028A000136005E5069B26F4607613B1013B0693A1
:1028B0000135039B01330393FFF7B5BB8A46FFF74E
:1028C00021BA13AB039382E65A46484607F090FCC0
:1028D000A8F1020514F8021CA31EC2E413AB039373
:1028E0006FE7089B53F8042B089310802FE6089E8F
:1028F00056F8043B039310EE102A10EE100A2B46F4
:1029000029460BF06BFF002840F00C812046294639
:102910000BF0C2FF039B08961860C9E4089B53F8AC
:10292000042B08938A46A2F80080FFF7EBB9119CAC
:1029300021460A230131484607F0B4F90F9BC21A19
:102940000DF2B3239C4228BF0DF2B22474492046F5
:1029500005F006FF9AE4851C40F0FC80DBF80430AB
:10296000002B56463FF733AF5946484607F080FCE8
:10297000002888D0DDF81880DDF830A00A94002EF9
:1029800089D0FFF7DDB99DF8482063E7D8F800301B
:10299000042B7FF46AAF6BE7DDE9056A002E7FF454
:1029A000B1A9039B1E60049B01330493FFF7AAB9EE
:1029B00014F8011C5A464846013C07F019FCFFF781
:1029C00047BB0C9B06998B42A3EB0102B8D15DE497
:1029D0009AF8020046F002060AF1020AFFF70BB964
:1029E000A844FFF78FB923F4F06303934FF0010A73
:1029F000FFF763BA23F4F06303934FF00109FFF785
:102A00005CBA0A9B02333FF429AE039B186804F0BA
:102A100051F920BB0A9B032BD0447FF416AE2B68E0
:102A2000042B7FF412AE11E60492FFF74CB9089B19
:102A300053F8042B8A46C2F800800893FFF762B966
:102A40005946484607F014FC00283FF40CAE5346A4
:102A5000059EDDF818A0002B7FF472A99EE753466F
:102A6000059EDDF818A0002B98D058AB1C44C3F18C
:102A7000010514F801195A46484607F0B9FBE5422A
:102A8000F7D18BE74FF0000AE8E55346DDF81880F0
:102A9000DDF830A00A94002B3FF4FDAE58AB1E4485
:102AA000C3F1010416F801195A46484607F0A0FB85
:102AB000F442F7D1EFE64A465346D946039EDDF885
:102AC00038A08B46FFF713BA0B9DAC427FF6FBA8EC
:102AD00014F8011D5A46484607F08AFBAC42F7D16C
:102AE000FFF7F1B84FF0FF330493FFF7ECB80B9DFD
:102AF000AC427FF6E8A814F8011D5A46484607F094
:102B000077FBAC42F7D1FFF7DEB8344643E607F077
:102B100055FBFFF7C2BA08F101083CE6A804002003
:102B2000D04003086A48089605F09CFC039B83ED9F
:102B3000000AFFF7BDBB0B9A94427FF6C4A814F8B5
:102B4000011D5A46484607F053FB0B9B9C42F6D1A9
:102B5000FFF7B9B8039B1B681D4601337FF466AECF
:102B60002A4677E6012D38BF012516F0010415D15C
:102B7000F10679D4089C2B4654F8041BCDF800B01C
:102B80000122484607F092FB00283FF4D9A8049B95
:102B90000894013380440493FFF7B4B816F010038F
:102BA000039308BF089BCDF814A004BF53F8046B2F
:102BB00008934FF000040A9BAA4618BF00264D4612
:102BC000A146069304F0A4F848453FF4B9A8DBE910
:102BD000002158AB12F8010B03F80900069B0139DC
:102BE000032BCBE9002109F1010916AC02D12368BE
:102BF000042B04D0082200212046FEF7C9FD4B46D5
:102C000058AA00943146284604F012FC421C0346A0
:102C10003FF496A800283DD1039A02B93260C84417
:102C20000AF1FF3A039A02B90436DBF80420002ABD
:102C30004FF0000934DDBAF1000FC2D1DDF814A065
:102C40000A93A946039B002B3FF432ABFFF75AB817
:102C5000DBF800201A44CBF80020594648461C44B3
:102C6000ED1A07F005FB78B9DBF804309D42EFDC84
:102C70005B1BCBF80430DBF800302C441D44CBF850
:102C80000050A044FFF74EBA002C3FF459A8A044CE
:102C9000FFF748BA981C14D1DBF80420002A90DC16
:102CA00059462846069307F0E3FA069B0028C2D04F
:102CB0004C46DDF814A00A93A946002CC2D0FFF7B9
:102CC0003FB8032BC844ABD12268042AA8D1A9E796
:102CD000CC2E03082DE9F84F4B6E9C0490462DD561
:102CE0009368126843B38B46064602F1080959E916
:102CF000025A5FEA9A0715D0043D002401E0A7427A
:102D00000ED055F8041F5A46304603F089FC431C88
:102D100004F10104F3D10023C8E90133BDE8F88FC1
:102D2000D8F808302AF0030AA3EB0A03C8F80830E1
:102D300009F10809002BDAD10020ECE703F0FEFDD1
:102D40000023C8E90133BDE8F88F00BF10B49468D0
:102D500014B15DF8044BBDE7204654605DF8044BA8
:102D6000704700BF2DE9F04FABB01C4688461746B0
:102D70000693834618B1836B002B00F02582B8F9C7
:102D80000C1088048AB20AD4D8F8643041F4005296
:102D900023F40053A8F80C20C8F8643092B213074B
:102DA00040F1A480D8F81030002B00F09F8002F092
:102DB0001A020A2A00F0A8801AAB0D930023CDE96D
:102DC0000E3309930DF1680905933B78002B00F051
:102DD0000D813C4604E014F8013F002B00F0E88030
:102DE000252BF8D1E51B40F0E5802378002B00F07F
:102DF000FD804FF0000200218DF82F2063780491B0
:102E00004FF0FF32671C084602928A460137A3F151
:102E10002002582A00F2F780DFE812F03302F500B2
:102E2000F5002F02F500F500F500F500F500F500BE
:102E3000E5012B02F500F001F401F500270259002D
:102E400059005900590059005900590059005900BA
:102E5000F500F500F500F500F500F500F500F500CA
:102E6000F500F5000E02F500F500F500F500F5009F
:102E7000F500F500F500F500F5009400F500F5000B
:102E8000F500F500F5008400F500F5004802F500B6
:102E9000F500F500F500F500F500F500F500F5008A
:102EA000F5003A02A701F500F500F5008902A70137
:102EB000F500F5007F02F50069029600C902C5021F
:102EC000F500A402F5008600F500F5008D02A3F1DF
:102ED0003002002417F8013B04EB840402EB4404A5
:102EE000A3F13002092AF5D9049490E741465846E7
:102EF00002F076F8002840F03585B8F80C2002F092
:102F00001A020A2A7FF458AFB8F90E30002BFFF6E8
:102F100053AF23463A46414658462BB0BDE8F04FE2
:102F200000F044BD4AF0100A1AF0200100F00F81B1
:102F3000069B073323F00703596853F8080B0693E1
:102F400001230EE04AF0100A1AF0200100F0F2808E
:102F5000069B073323F00703596853F8080B0693C1
:102F600000234FF000028DF82F2000220792029AD2
:102F7000541C00F02F822AF08004019450EA0104CE
:102F800040F02682002A40F09584002B40F00E8409
:102F90001AF00103039340F03E841AACDDE90263AA
:102FA0009E42B8BF1E46079B002B3ED001363CE038
:102FB000E51B1BD00E9B0F9A01332A44072BC9E94E
:102FC00000750F920E9305DC09F10809059B2B444F
:102FD00005930AE7002A00F0D1830DAA414658461E
:102FE000FFF778FE30B90DF16809EFE70F9B002B72
:102FF00040F08584B8F80C305B0600F1B384059886
:103000002BB0BDE8F08F002940F07584002BEDD087
:103010008DF8403001264FF000038DF82F300396D5
:1030200010AC0023CDF804A00293019B13F002031F
:103030000793019B18BF023613F08403089304D151
:10304000049B9D1B002D00F3DB82DDE90E1001F1D6
:10305000010C9DF82F3093B101300DF12F030121A8
:10306000BCF1070FCDE90EC0C9F80030C9F8041053
:1030700000F3A682614609F108090CF1010C079BD7
:10308000EBB10CAB0230C9F80030BCF1070F4FF0C8
:103090000203CDE90EC0C9F8043040F3AB8200282A
:1030A00000F066830DAA41465846FFF713FE00283C
:1030B000A0D1DDE90E100DF1680901F1010C089BAA
:1030C000802B00F0C881DDE902329D1A002D00F34B
:1030D0001C82039BC9F800401844BCF1070FCDE9DE
:1030E0000EC0C9F8043040F3B381002800F0D2824A
:1030F0000DAA41465846FFF7EDFD00287FF47AAF50
:103100000F980DF16809019B5A0704D5049B9C1B7D
:10311000002C00F3C982DDE90423B242ACBF9B1846
:103120009B190593002840F0368200230E930DF181
:1031300068094AE61AF0100349D11AF0400146D056
:10314000069A52F8040B0692194680B209E71AF063
:10315000100342D11AF040013FD0069A52F8040BF6
:103160000692194680B20123FBE6002940F0E18374
:103170001AF0200F069B68D0073323F007031A4686
:103180005B6852F8080B06921946002BC0F20483C4
:10319000029B013300F08A839DF82F30079350EA99
:1031A00001032AF0800A00F054830A2871F1000319
:1031B00080F01283303001238DF86700CDF804A031
:1031C00003930DF16704E9E603F0B6F9D7E5069B32
:1031D00053F8040B06930B46C3E6069B53F8040B07
:1031E00006930123BDE6069B53F8042B0492002AA4
:1031F00080F20D83049A0693524204923B784AF07F
:10320000040A03E63C4614F8013B2A2B00F0AF8386
:10321000A3F13002092A274698BF002400F28F83C9
:1032200017F8013B04EB840402EB4404A3F13002E1
:10323000092AF5D90294EAE5002940F084834AF08E
:10324000100A1AF0200F069B96D153F8040B069330
:103250001AF0100F40F09B821AF0400F00F0978296
:1032600040F3C0310B4600B28FE73B784AF0800A4A
:10327000CCE53B7801212B20C8E53B784AF0010AD8
:10328000C4E53B7800287FF4C1AD01212020BDE5D5
:10329000069B4FF000028DF82F20012653F8042BD7
:1032A0008DF840200693039610ACBAE6002940F052
:1032B0004D83BD4A09921AF0200144D0069A073284
:1032C00022F00702516852F8080B06921AF0010F1B
:1032D0000BD050EA010208D08DF8313030238DF840
:1032E00030304AF0020A02233BE6022339E6002985
:1032F00040F022831AF0200F40F09A821AF0100F4B
:1033000040F0CC821AF0400F00F0C882069B05996D
:1033100053F8042B0693118057E53B786C2B03BFC1
:103320007B784AF0200A01374AF0100A6EE53B78B4
:103330004AF0400A6AE5002940F0F8829B4A099267
:103340001AF02001BAD11AF0100240F01B821AF0D4
:10335000400100F01782069C54F8040B06941146B5
:1033600080B2B3E7069D55F8044B4FF000038DF88B
:103370002F30002C00F0A482029B5E1C00F07282B1
:103380001A4600212046FEF76BF8002800F0BE82A6
:10339000031B03939DF82F30079300230695CDF868
:1033A00004A00293FAE53B784AF0200A2EE5069B3A
:1033B00053F8040B069330238DF8303078238DF8C2
:1033C00031307A4B09934AF0020A00210223C8E502
:1033D000DDF804A0012B3FF4E8AE022B1AAC12D1A9
:1033E000099A00F00F030009D35C04F8013D40EA9C
:1033F0000170090950EA0103F3D11AAB1B1BCDF888
:1034000004A00393CAE500F00703C00840EA417036
:10341000C908303350EA0105224604F8013DF2D1D3
:103420001AF0010FE9D0302BE7D03023023A04F82C
:10343000013C1AAB9B1ACDF804A003931446ADE5EA
:1034400003981A9401231B900F900E930DF16809B5
:1034500009F1080957E6049B9D1B002D7FF733AE49
:10346000102D40F37B82DFF848A152461023A2467C
:10347000144607E001F1020E09F108091146103D5A
:10348000102D1DDD4A1C1030072AC9E90043CDE983
:103490000E20EFDD0DAA002800F08C804146584632
:1034A0000DF16809FFF716FC00287FF4A3ADDDE9F4
:1034B0000E10103D102D01F1010E4FF01003E1DC54
:1034C000234654469A462844BEF1070FCDE90EE044
:1034D000C9F800A0C9F8045040F3A481002800F006
:1034E000F8810DAA41465846FFF7F4FB00287FF407
:1034F00081ADDDE90232DDE90E109D1A002D01F1EA
:10350000010C0DF168097FF7E4AD102DDFF8A0A0E4
:103510002BDD52461023A246144607E001F1020CAF
:1035200009F108091146103D102D1BDD4A1C103011
:10353000072AC9E90043CDE90E20EFDD0DAA414677
:1035400018B358460DF16809FFF7C4FB00287FF453
:1035500051ADDDE90E10103D102D01F1010C4FF0C1
:103560001003E3DC234654469A462844BCF1070F77
:10357000CDE90EC0C9F800A0C9F8045000F3E380FB
:1035800009F108090CF1010CA3E54FF0010C01460B
:103590000DF16809C7E70DAA41465846FFF79AFBA7
:1035A00000283FF4C2AD25E5D8400308EC400308ED
:1035B000C8F302084FF0010E01460DF168095EE7FD
:1035C000002800F0D2800DAA41465846FFF782FB42
:1035D00000287FF40FADDDE90E100DF1680901F14F
:1035E000010C4CE502200CAB1B901A934FF0010C20
:1035F0000DF16809614609F1080901F1010C5EE568
:10360000102D40F38D81DFF880A3DDE90EC0524616
:103610001023A2466146144607E001F1020C09F1AD
:1036200008091146103D102D1BDD4A1C1030072AD9
:10363000C9E90043CDE90E20EFDD0DAA20B34146D4
:1036400058460DF16809FFF745FB00287FF4D2AC1E
:10365000DDE90E10103D102D01F1010C4FF01003AB
:10366000E3DC2346614654469A4628440729CDE9BF
:103670000E10C9F800A0C9F8045000F39C8009F1AD
:10368000080901F1010CE4E401464FF0010C0DF1D1
:103690006809C7E7019B0E9059074CD5049B9C1BFA
:1036A000002C48DD0DF16809102C40F35281DFF841
:1036B000D8A20E9A53461025B2461E4606E0911C2B
:1036C00009F108091A46103C102C19DD531C103062
:1036D000072BC9E90065CDE90E30F0DD0DAA28B34E
:1036E00041465846FFF7F6FA00287FF483ACDDE93F
:1036F0000E20103C102C02F101010DF16809E5DCEF
:10370000334656469A4620440729C9E900A4CDE924
:103710000E107FF700AD70B10DAA41465846FFF775
:10372000D9FA00287FF466AC0F98F4E40121024630
:103730000DF16809C7E7DDE90423B242ACBF9B186D
:103740009B190593F1E400283FF47AAE0DAA414697
:103750005846FFF7BFFA00287FF44CAC0E9B0F9839
:1037600003F1010C0DF16809B3E4079B002B69D14B
:103770004FF0010C01460DF16809A0E40E920DF125
:10378000680923E4069A52F8040B06929EE5C117D5
:103790000B46002BBFF6FCAC2D2340428DF82F309A
:1037A000079361EB41010123FFF7E1BB029B039308
:1037B0001AACFFF7F3BB002862D00DAA4146584669
:1037C000FFF788FA00287FF415ACDDE90E100DF143
:1037D000680901F1010C3CE41AAC0A2200230646F8
:1037E0000D460BF0A9F8303204F8012D00233046C5
:1037F00029460A220BF0A0F80A2E75F10003ECD23C
:103800001AAB1B1BCDF804A00393FFF7C7BB0693AD
:103810003B78FFF7FBBA30238DF867300DF1670472
:10382000FFF7BCBB09F108090EF1010C71464AE42F
:10383000DDE9050353F8041B0693C217C1E9000232
:10384000FFF7C3BA02200CAB1B901A930DF1680965
:10385000D1E6029B002B7FF4ADACCDF804A003931E
:10386000FFF79BBB20460695CDF804A0FEF7E8F8CD
:103870009DF82F300793002303900293FFF78EBB30
:103880009DF82F3063B301239C461B930DF12F034A
:103890001A930DF168096046FFF7ECBB069B05998A
:1038A00053F8042B11600693FFF78FBA9DF82F3061
:1038B00007937AE4012BDDF804A07FF48EAD79E460
:1038C000029E304C0695062E28BF06260396FFF76B
:1038D000A8BB4FF0010C01460DF16809FFF7F3BBDF
:1038E000079B002B7FF47EAE01464FF0010C0DF1DB
:1038F0006809FFF7E8BB8DF82F00FFF787BB0DAA1B
:1039000041465846FFF7E6F9FFF774BB029B039365
:103910009DF82F300695CDE901A00793FFF73EBB38
:103920000E990F98DFF860A001319EE68DF82F0008
:1039300004E58DF82F001BE48DF82F00DAE4002257
:103940000292FFF764BA8DF82F0078E48DF82F000B
:10395000AFE40E99DFF830A00131D4E6DFF82CA0F7
:10396000E646B0E54FF0FF330593FFF748BB069AF4
:103970007B78274652F8044B069244EAE47402949A
:10398000FFF744BA00410308B8F30208C8F302087D
:1039900010B4054C8446134620685DF8044B0A4673
:1039A0006146FFF7DFB900BF7800002070B50C4614
:1039B0008989ADF58D6D21F00201ADF80C10616EB5
:1039C0001991E189ADF80E10E1690791616A0991D9
:1039D0001AA9009104914FF4806102910591002190
:1039E000069169460646FFF7BDF9051E07DB6946E5
:1039F000304602F077FC002818BF4FF0FF35BDF8C5
:103A00000C305B0603D5A38943F04003A38128460D
:103A10000DF58D6D70BD00BF2DE9F04F2DED068BBE
:103A2000BBB01C468846914609EE100A054603F0D5
:103A300097F90368109318460994FEF701F80E9061
:103A40001DB1AB6B002B00F04282B8F90C2095043D
:103A500093B20AD442F40053D8F86420A8F80C308A
:103A600022F400529BB2C8F86420180740F1AB80E2
:103A7000D8F81020002A00F0A68003F01A030A2BC1
:103A800000F0B0809FED947B0023CDE91E338DEDD7
:103A90000C7B2AAA0B931D9292460F9311930793C6
:103AA00099F80030002B00F0A4814C4604E014F893
:103AB000013F002B00F0E580252BF8D1B4EB090580
:103AC00040F0E3802378002B00F0938100234FF037
:103AD000FF32CDE9052365788DF8573004F10109EF
:103AE00018469B4609F10109A5F12002582A00F267
:103AF000F780DFE812F07F02F500F5007A02F500AA
:103B0000F500F500F500F500F5002D027502F50051
:103B100038023D02F5007002590059005900590061
:103B200059005900590059005900F500F500F500F9
:103B3000F500F500F500F500F500F500F500570279
:103B40008901F5008901F500F500F500F500B602E0
:103B5000F500F5009800F500F500F500F500F5001A
:103B60008800F500F5009502F500F500F500F50078
:103B7000F500F500F500F500F500F5008702F0010D
:103B8000890189018901BB02F001F500F500EC0211
:103B9000F500D6029A00C502C002F5001B03F5002D
:103BA0008A00F500F500F902A5F13002002119F8AC
:103BB000015B01EB810102EB4101A5F13002092A11
:103BC000F5D9069190E719EE100A414601F008FA7E
:103BD000002841F02681B8F80C3003F01A030A2BB4
:103BE0007FF450AFB8F90E30002BFFF64BAF19EE53
:103BF000100A23464A4641463BB0BDEC068BBDE861
:103C0000F04F01F0A1B94BF0100B1BF0200100F0B8
:103C10005081099B073323F00703596853F8080BB9
:103C2000099301230EE04BF0100B1BF0200100F074
:103C30003381099B073323F00703596853F8080BB6
:103C40000993002300248DF85740059A561C00F074
:103C500091822BF08006039650EA010640F088829C
:103C6000002A40F00D83002B40F01E851BF001035D
:103C7000089300F0948530238DF8A7300DF1A70646
:103C80009DE2B4EB090500F0B4801F9B2B441F9309
:103C90001E9B0133072BCAE900951E9305DC0AF130
:103CA000080A079B2B4407930CE719EE100A1DAA7C
:103CB0004146FFF74BF818B90DF1A80AF1E7B046F5
:103CC000B8F80C305B0601F1AC8007983BB0BDEC56
:103CD000068BBDE8F08F00BF000000000000000070
:103CE000002B40F0E587002D00F0838000238DF845
:103CF000573001238DF880500493089320AE0023A1
:103D0000CDF80CB005930A93039B13F0020302D085
:103D1000049A02320492039A12F0840B05D1069A97
:103D20000499571A002F00F3A2831F9C9DF8572077
:103D30008AB11E9A0DF1570101320134CAF8001000
:103D4000072A4FF001011F941E92CAF8041000F3D5
:103D5000DD830AF1080A83B11E9B16AA01330234DF
:103D6000CAF80020072B4FF002021F941E93CAF8D6
:103D7000042000F3DA830AF1080ABBF1800F00F097
:103D80009B82059B089AA3EB020BBBF1000F00F38B
:103D9000D682039BDF0500F11B82089BCAF8043022
:103DA0001C441E9BCAF800600133072B1F941E930E
:103DB00000F350830AF1080A039B5A0705D5069BB6
:103DC000049A9D1A002D00F3BD83DDE906230499B2
:103DD0008A42ACBF9B185B180793002C40F0EA8224
:103DE00000231E9399F800300DF1A80A002B7FF4F0
:103DF0005CAE1F9B002B3FF463AF19EE100A1DAAA7
:103E00004146FEF7A3FF5BE7002B40F0F687099BD6
:103E1000073323F00703B3EC027B8DED0C7BDDE968
:103E20000C67099327F0004308EE903A08EE106AF9
:103E3000B94B51EC180B4FF0FF320AF0CFFC0028C1
:103E400040F0B484B44B51EC180B4FF0FF320AF041
:103E5000A7FC002840F0AA840022002330463946FF
:103E60000AF094FC002840F002879DF85740AB4EC2
:103E70002BF080030393AA4B0022472DC8BF1E4698
:103E80000323CDE9043208930A92002C3FF43CAF9F
:103E9000049B0133049337E71BF0100352D11BF04E
:103EA00040014FD0099A52F8040B0992194680B28A
:103EB000C8E61BF010033FD11BF040013CD0099A2B
:103EC00052F8040B0992194680B20123BAE628463B
:103ED00002F032FBB9E5002B40F09F871BF0200F6A
:103EE000099B68D0073323F007031A465B6852F832
:103EF000080B09921946002BC0F23D84059B013343
:103F000000F005852BF08003039350EA01039DF830
:103F1000574000F0C583DDF80CB00A2871F10003AA
:103F200080F0FC84303001238DF8A700CDF80CB070
:103F300008930DF1A70642E1099B53F8040B09937E
:103F400001237FE6099B53F8040B09930B4679E69E
:103F5000099A52F8041B0691002980F21B840699E5
:103F600009924942069199F800504BF0040BB9E5CB
:103F7000494611F8015B2A2D00F0C587A5F13002F2
:103F8000092A894698BF002100F2338719F8015B9E
:103F900001EB810102EB4101A5F13002092AF5D9BB
:103FA0000591A1E5002B40F030874BF0100B1BF082
:103FB000200F099B96D153F8040B09931BF0100FA7
:103FC00040F0D4831BF0400F00F0D08340F3C031A9
:103FD0000B4600B28FE799F800504BF0800B81E55B
:103FE00099F8005001232B207CE599F800504BF004
:103FF000010B77E599F8005000287FF473AD012399
:1040000020206FE5099B00228DF8572053F8042BE0
:10401000099301238DF880200493089320AE6EE667
:10402000002B40F0E2863F4B0F931BF0200163D042
:10403000099B073323F00703596853F8080B0993CA
:104040001BF0010F0BD050EA010308D030238DF88C
:1040500058308DF859504BF0020B0223F2E5022341
:10406000F0E599F800504BF0080B3BE599F800504B
:104070004BF0400B36E599F800504BF0200B31E542
:10408000099B53F8040B0993302378258DF8583099
:10409000254B0F934BF0020B8DF859500021022352
:1040A000D0E5002B40F0AD861BF0200F40F02584BA
:1040B0001BF0100F40F09D841BF0400F00F099841E
:1040C000099B079953F8042B09931180E8E499F8A8
:1040D00000506C2D03BF99F801504BF0200B09F1F3
:1040E00001094BF0100BFDE4002B40F092860E4BC3
:1040F0000F931BF020019BD11BF0100340F0318384
:104100001BF0400100F02D83099A52F8040B09922C
:10411000194680B294E700BFFFFFEF7F0841030814
:104120000C410308D8400308EC400308099C059B98
:1041300054F8046B00278DF85770002E00F0278488
:104140005A1C00F023851A4639463046FDF788F997
:10415000002800F03286831B089323EAE373099456
:1041600005979DF85740CDF80CB004930A978CE65C
:10417000DDF80CB0012B3FF4D0AE022B00F08880AC
:104180002AAE00F00703C00840EA4170C908303386
:1041900050EA0107324606F8013DF2D11BF0010F4B
:1041A00000F08480302B00F081803023023A06F842
:1041B000013C2AAB9B1ACDF80CB008931646059B20
:1041C000089A9342B8BF1346049300230A935CE60F
:1041D000652D40F3F980DDE90C01002200230AF08F
:1041E000CBFA002800F0E9811E9BC54ACAF80020DE
:1041F000013301340122072B1F941E93CAF80420B7
:1042000000F36B840AF1080A179B0B9A934280F221
:10421000BC820E9B109A1C44CAE900231E9B1F946B
:104220000133072B1E9300F3A5830AF1080A0B9BA9
:104230005D1E002D7FF7C0AD102D1E9BB14F40F3CA
:10424000408419EE10BA102605E00AF1080A103D64
:10425000102D40F3368401331034072BCAE9007661
:10426000CDE91E34F1DD1DAA41465846FEF76EFD2C
:1042700000287FF425ADDDE91E340DF1A80AE6E73C
:10428000012B00F04885022BDDF80CB07FF478AFED
:104290000F9A2AAE00F00F030009D35C06F8013D27
:1042A00040EA0170090950EA0103F3D12AAB9B1BD4
:1042B000CDF80CB0089382E7069B049AA3EB020B9F
:1042C000BBF1000F7FF75DADBBF1100F1E9A8D4F54
:1042D00027DD2146102319EE104A06E0ABF1100B42
:1042E000BBF1100F0AF1080A1ADD01321031072A5A
:1042F000CAE90073CDE91E21F0DD1DAA4146204622
:104300000DF1A80AFEF722FD00287FF4D9ACABF12D
:10431000100BBBF1100FDDE91E214FF01003E4DCA0
:104320000C4601325C44072ACDE91E24CAF800700D
:10433000CAF804B000F3DF830AF1080A21E5BBF1F3
:10434000100F1E9A6F4F27DD2146102319EE104AD9
:1043500006E0ABF1100BBBF1100F0AF1080A1ADDF1
:1043600001321031072ACAE90073CDE91E21F0DDC0
:104370001DAA41462046FEF7E9FC00287FF4A0ACC8
:10438000ABF1100BBBF1100FDDE91E210DF1A80AF6
:104390004FF01003E4DC0C4601325C44072ACDE9FF
:1043A0001E24CAF80070CAF804B000F3CC810AF1E8
:1043B000080AEEE419EE100A1DAA4146FEF7C6FCF3
:1043C00000283FF40DAD7BE40B9B012B40F3718182
:1043D0001E9DCAF80060013501340123072D1F948A
:1043E0001E95CAF8043000F30C830AF1080A0E9BEC
:1043F000109A01351C44072DCAE90023CDE91E544B
:1044000000F30D830AF1080ADDE90C010022002304
:104410000AF0B2F9002840F06B810B9B0135013B9B
:1044200001361C44072DCAF800601E95CAF80430F6
:104430001F9400F34F810AF1080A119BCAF8043057
:1044400001351C44072D19ABCDE91E54CAF80030C4
:104450007FF7B0AC19EE100A1DAA4146FEF776FCB4
:1044600000287FF42DAC1F9C0DF1A80AA4E4102FA6
:10447000DDE91E2134DD1293CDF84C901024B146B5
:104480000B464646B8462F4619EE105A06E0A8F1EC
:104490001008B8F1100F0AF1080A19DD01321A49A3
:1044A0001033072ACAE90014CDE91E23EFDD1DAA47
:1044B000314628460DF1A80AFEF748FC00287FF493
:1044C000FEABA8F11008B8F1100FDDE91E23E5DC02
:1044D0003D4619464746129BB0464E46DDF84C9085
:1044E000CAF8047001327C18072A0749CAF800107C
:1044F000CDE91E2400F3D5820AF1080A16E400BFB4
:1045000018410308E8F30208D8F3020819EE100A6C
:104510001DAA41461293FEF719FC00287FF4D0AB88
:104520001F9C129B0DF1A80A15E419EE100A1DAA92
:104530004146FEF70BFC00287FF4C2AB1F9C0DF137
:10454000A80A1AE4102D1E9B20DD19EE107A102601
:1045500004E0103D102D0AF1080A17DD0133914ADD
:104560001034072BCAE90026CDE91E34F1DD1DAA5F
:10457000414638460DF1A80AFEF7E8FB00287FF413
:104580009FAB103D102DDDE91E34E7DC0133854A79
:10459000CAF804502C44072BCDE91E34CAF8002079
:1045A0007FF713AC19EE100A1DAA4146FEF7CEFBA9
:1045B00000287FF485AB1F9C07E41799002940F37E
:1045C0003C82DDE90A379F42A8BF1F46002F0BDD62
:1045D0001E9B01333C44072BCAE900671F941E93BE
:1045E00000F3CB830AF1080A0A9D002FA8BFED1B38
:1045F000002D00F3D581179D0B9B9D4280F2AE816B
:104600000E9B109A1C44CAE900231E9B1F94013381
:10461000072B1E9300F3A3830AF1080A0B9B0A9A47
:104620005D1B9F1AAF42A8BF2F46002F0EDD1E9BB9
:10463000CAF80470013316443C44072BCAF80060E2
:104640001F941E9300F3A6830AF1080A002FA8BF47
:10465000ED1B002D7FF7B0AB102D1E9B524F40F38A
:10466000308219EE10BA102605E00AF1080A103D52
:10467000102D40F3268201331034072BCAE900764F
:10468000CDE91E34F1DD1DAA41465846FEF75EFB1A
:1046900000287FF415ABDDE91E340DF1A80AE6E72A
:1046A000059B002B40F037830023059308932AAE27
:1046B00085E5039BD9073FF58BAE1E9DCAF80060C8
:1046C000013501340123072D1F941E95CAF80430CB
:1046D0007FF7B1AE19EE100A1DAA4146FEF736FB70
:1046E00000287FF4EDAADDE91E540DF1A80AA4E626
:1046F0000B9B5E1E002E7FF7A0AE102E2A4F40F3BC
:104700005782CDF814904FF0100B19EE109A05E077
:104710000AF1080A103E102E40F348820135103489
:10472000072DCAE9007BCDE91E54F1DD1DAA4146E3
:104730004846FEF70BFB00287FF4C2AADDE91E54B1
:104740000DF1A80AE6E719EE100A1DAA4146FEF788
:10475000FDFA00287FF4B4AA1F9C0DF1A80AFFF708
:1047600018BB099B53F8040B099369E4C1170B4666
:10477000002BBFF6C3AB40424FF02D0461EB41016B
:104780008DF857400123FFF760BA039BDD077FF5E3
:1047900013AB3EE599F800500992FFF7A3B92AAE92
:1047A0000DE500BFD8F30208E8F30208DDE90C01CB
:1047B00002460B460AF012F8002840F06583059B7C
:1047C000013325F0200700F0F582472F00F08182A9
:1047D000DDE90C014BF4807200290392C0F24C8297
:1047E0009DED0C7B00231293B0EE47AAF0EE67AA72
:1047F000662D00F0E981462D00F0E681B0EE4A0A10
:10480000F0EE6A0A452F0ABF059B059C5C1C1BAB9A
:10481000019318AB009319EE100A17AB2246022140
:1048200000F02AFD672D064640F03D821BF0010F87
:1048300040F03C821B9B472FA3EB06030B9340F0F9
:104840006E83179B0A93D91C03DB059A934240F3AE
:104850007882023D0A9A8DF86450531E002B1793FC
:10486000B6BFC2F101032B222D22092B8DF8652042
:1048700040F3F5820DF17304C04F2246104687FBCA
:104880000321DA17C2EBA10202EB8201A3EB410183
:10489000303100F8011C19466329134600F1FF323C
:1048A000ECDC3033D9B2831E9C4202F8011C40F28A
:1048B000278313460DF1660201E013F8011B02F88D
:1048C000011B9C42F9D10DF175030DF166021B1A13
:1048D000134419AA9B1A11930B9A119B012A134492
:1048E000089340F3C882089B0E9A1344089323EA66
:1048F000E373049300230A939EE1099B079853F8FE
:10490000041B0993C217C1E90002FFF7C9B80A28BE
:1049100071F100039DF85740FFF404ABCDF80C9003
:104920002AAEA1460A22002304460F460AF004F8E4
:10493000303206F8012D0023204639460A2209F0BC
:10494000FBFF0A2C77F10003ECD22AAB9B1B4C46F1
:104950000893DDF80C90CDF80CB030E4039BD80739
:104960003FF54EAEDDE90A239F1A5D1BAF42A8BF9B
:104970002F466BE619EE100A1DAA4146FEF7E6F92E
:1049800000287FF49DA91F9C0DF1A80A4FE4062B77
:1049900028BF0623CDE90834794E0493FFF7AFB959
:1049A000102D1E9B774F40F355813A46059647469A
:1049B00019EE106A4FF0100B904605E00AF1080A54
:1049C000103D102D40F3428101331034072BCAE90A
:1049D000008BCDE91E34F1DD1DAA39463046FEF7C5
:1049E000B5F9002840F04482DDE91E340DF1A80A33
:1049F000E6E7099B079953F8042B11600993FFF729
:104A00004FB819EE100A1DAA4146FEF79FF900287B
:104A10007FF456A9DDE91E540DF1A80AE7E419EE6A
:104A2000100A1DAA4146FEF791F900287FF448A913
:104A3000DDE91E540DF1A80AE6E41E9B524ACAF8AD
:104A40000020013301340122072B1F941E93CAF862
:104A5000042000F31A810AF1080A002959D1039BA6
:104A60000B9A03F0010313433FF4A6A90E9B109980
:104A70001A19CAE900131E9B1F920133072B1E93BC
:104A800000F32D810AF1080A0B99CAF8006001337E
:104A90008C18072BCDE91E34CAF804107FF78AA9B9
:104AA000D8E419EE100A1DAA41461293FEF74EF9FA
:104AB00000287FF405A91F9C129B0DF1A80AFFF79F
:104AC00035B901332C44072BCAF80070CAF80450DA
:104AD000CDE91E347FF76EA9BCE419EE100A1DAAB9
:104AE0004146FEF733F900287FF4EAA81F9C0DF138
:104AF000A80AFFF789BB19EE100A1DAA4146FEF766
:104B000025F900287FF4DCA81F9C0DF1A80AFFF707
:104B100038B90E9B10981A19CAE900031E9B1F9200
:104B20000133072B1E9300F3DA800AF1080A0029EB
:104B3000AADA4D421031134F80F2788119EE10BA83
:104B4000102405E00AF1080A103D102D40F36E8193
:104B500001331032072BCAE90074CDE91E32F1DDB2
:104B60001DAA41465846FEF7F1F800287FF4A8A890
:104B7000DDE91E320DF1A80AE6E700BF676666664A
:104B800000410308E8F3020818410308304609947D
:104B90000597CDF80CB0FCF753FF20EAE0739DF8C1
:104BA0005740089004930A97FFF76FB9DDF8149007
:104BB000CAF8007001353444072DCDE91E54CAF8F7
:104BC00004607FF738AC85E5059CB0EE4A0AF0EE4C
:104BD0006A0A1BAB019318AB0093224617AB19EE80
:104BE000100A032100F048FB064604193378302BE5
:104BF00062D0179B1C4451EC1A0B0022002309F0D1
:104C0000BBFD002800F08B8023469B1B472F0B9396
:104C10003FF417AE662D40F08281179B059A0A93E8
:104C2000002B0BF0010B40F35C815BEA020140F0CA
:104C300045810A9B04930893129B002B7BD02D2364
:104C40008DF8573000230593FFF722B94246059EA1
:104C5000B846174601332C44072BCDE91E34CAF859
:104C60000070CAF8045049DC0AF1080AC3E42D2494
:104C70008DF85740FFF7FBB801F100430AEE903A78
:104C80002D230AEE100A1293B2E519EE100A1DAA9E
:104C90004146FEF75BF800287FF412A817991F9C85
:104CA0000DF1A80AD9E6472D3FF4C0AD3444A2E780
:104CB0008DF85700FFF717B851EC1A0B00220023AC
:104CC00009F05AFD002894D1059BC3F10103179305
:104CD00090E7059B002B08BF0123059378E519EEAB
:104CE000100A1DAA4146FEF731F800287EF4E8AF0D
:104CF000DDE91E3217990DF1A80A18E719EE100A1E
:104D00001DAA4146FEF722F800287EF4D9AF1F9C69
:104D10000DF1A80A6FE4DDF80CB0FFF703B91B9B97
:104D2000A342BFF472AF30215A1C1B9219701B9B17
:104D30009C42F9D869E7129B9DF857400593FFF70D
:104D4000A4B8DDE90A32934243DB1BF0010F40F0C7
:104D5000AC8023EAE3720492089367256CE719EEAE
:104D6000100A1DAA4146FDF7F1FF00287EF4A8AF06
:104D7000179D1F9C0DF1A80A50E419EE100A1DAAF8
:104D80004146FDF7E3FF00287EF49AAF1F9C0DF12A
:104D9000A80A29E419EE100A1DAA4146FDF7D6FF1C
:104DA00000287EF48DAF179D0B9B1F9C5D1B0DF1A2
:104DB000A80A4BE4062305930AE5059B0994CDF860
:104DC0000CB09DF857400493089305900A90FFF7A4
:104DD0005CB80E9A0B9B13440A9A0893002A75DD5F
:104DE00023EAE3730493672526E78DF85700FFF75E
:104DF0001AB900220592FEF777BE8DF85700FFF72B
:104E000006B88DF85700FFF74FB98DF85700FFF738
:104E1000CCB88DF85700FFF76AB98DF85700FFF747
:104E20005DB84FF0FF330793FEF74FBF01332A44BD
:104E3000072BCDE91E32CAF80070CAF804507FF77C
:104E400021AE19EE100A1DAA4146FDF77FFF00288A
:104E50007EF436AFDDE91E320DF1A80A14E63033D8
:104E60008DF8673030238DF866300423119333E5D5
:104E7000B846FEF725BF1BF001020A927FF433AD5E
:104E800023EAE3730493D7E60D9B264E002BB8BFAD
:104E90002D242BF080030393A8BF9DF85740224B8D
:104EA000B8BF8DF85740FEF7E7BF0A9B0E9A134430
:104EB000089323EAE37304936725BDE60E990B4438
:104EC0001A4422EAE27308920493B5E60A9B089A10
:104ED000C3F101031A4422EAE2730892049367259E
:104EE000AAE65BEA020303D1012304930893A3E635
:104EF0000E9B01331A4422EAE273089204939BE664
:104F000002231193E8E4099A99F80150894652F86E
:104F1000041B099241EAE1710591FEF7E3BD179B7D
:104F20000A9397E4104103081441030810B4054C98
:104F30008446134620685DF8044B0A466146FEF736
:104F40006BBD00BF7800002070B50C468989ADF5B7
:104F50008D6D21F00201ADF80C10616E1991E1899F
:104F6000ADF80E10E1690791616A09911AA90091E3
:104F700004914FF4806102910591002106916946E8
:104F80000646FEF749FD051E07DB6946304601F07F
:104F9000A9F9002818BF4FF0FF35BDF80C305B06AB
:104FA00003D5A38943F04003A38128460DF58D6DF9
:104FB00070BD00BF38B50C46084D844611462046EA
:104FC0001A4600232B60644614F09CFE431C00D05C
:104FD00038BD2B68002BFBD0236038BDD44800209F
:104FE00038B5334B1B6805460C460BB19A6B12B3B0
:104FF000B4F90C3018079AB225D5216900292DD0B3
:1050000012F0010007D00020A06060694042A0615A
:1050100039B1002038BD950758BF6069A0600029EC
:10502000F7D1120658BF0846F4D543F04003A381D8
:105030004FF0FF3038BD184601F07EFAB4F90C305D
:1050400018079AB2D9D4D1062AD5520714D42169A7
:1050500043F00803A3819AB20029D1D102F4207051
:10506000B0F5007FCCD02146284601F097FEB4F978
:105070000C3021699AB2C3E7216B51B104F14002AF
:10508000914204D0284601F053FBB4F90C300022C1
:10509000226321690022C4E9001223F02403D7E728
:1050A000092243F040032A604FF0FF30A38138BD4E
:1050B0007800002070B4184C2568D5F848411CB31E
:1050C00065681F2D25DC38B9AB1C0135656044F8D7
:1050D0002310002070BC704704EB850C0228CCF82C
:1050E0008820D4F888614FF0010202FA05F246EAFE
:1050F0000206C4F88861CCF80831E5D1D4F88C31C7
:105100001343C4F88C31DFE705F5A674C5F84841B0
:10511000D6E74FF0FF30DDE790F3020808B5062030
:1051200003F042FA012009F005FE00BF38B5074D33
:105130000022044608462A6009F0B6FD431C00D050
:1051400038BD2B68002BFBD0236038BDD44800202D
:105150002DE9F04F03690C69A34283B0C0F2878048
:10516000013C01F11405A30000F11408009355F867
:10517000243058F82420013381469A4208EB8400F9
:1051800005EB84070190B2FBF3F63BD30023AE4658
:1051900040469B465EF804AB02681FFA8AFC06FB99
:1051A0000C334FEA134C4FEA1A4A06FB0ACA1FFA9D
:1051B00083FCABEB0C0C1FFA8AF31CFA82FCC3EBEA
:1051C000124202EB2C421FFA8CFC4CEA0243774558
:1051D00040F8043B4FEA224B4FEA1A43DAD2009BD5
:1051E00058F8033073B9019B043B984504D307E09A
:1051F000984504F1FF3403D253F80429002AF7D06C
:10520000C9F81040484602F065FC00282BDB013647
:105210004046002355F8041BD0F800C08AB29A1A01
:105220000B0C12FA8CF2C3EB1C4303EB224392B239
:1052300042EA0342AF4240F8042B4FEA2343E9D24B
:1052400058F8242008EB84036AB9043B984504D33A
:1052500007E0984504F1FF3403D253F80429002AEB
:10526000F7D0C9F81040304603B0BDE8F08F0020F9
:1052700003B0BDE8F08F00BF2DE9F04F2DED068B98
:1052800095B08DED020B0191016C249D099259ECB2
:10529000108B0446069341B1426C4A60012393404F
:1052A0008B6002F05BF900232364B9F1000AB4BFFC
:1052B000012300232B607C4BBCBF2AF0004ACDF8B1
:1052C0000CA033EA0A0300F0B2809DED027B0022BD
:1052D00051EC170BB0EE479AF0EE679A002309F0F5
:1052E0004BFA074680B1069A01231360259B002BD9
:1052F00000F0DB826D481860431E0093009815B0E3
:10530000BDEC068BBDE8F08F12AA13A92046B0EEC3
:10531000490AF0EE690A02F035FDB0EE498AF0EE76
:10532000698A5FEA1A56054640F09980DDE91276EF
:105330003E4406F23240202840F3AB83C0F14000E7
:105340000AFA00FA06F2124028FA00F04AEA0000CF
:1053500008F030FF0123013E0D93A1F1F871544B89
:10536000002208F0E9FD4AA3D3E9002308F09CFFDE
:1053700049A3D3E9002308F0E1FD80463046894681
:1053800008F028FF46A3D3E9002308F08DFF02466A
:105390000B464046494608F0D1FD8046894609F053
:1053A00033FA0022834600234046494609F0EEF9CD
:1053B000002840F06D82BBF1160F00F25C823D4B7D
:1053C00003EBCB03D3E9002351EC190B09F0DEF911
:1053D000002875D00023BE1B0C93731E0BF1FF3BFE
:1053E000049300F14F8200230893BBF1000F6EDAA3
:1053F000089BCDF814B0A3EB0B030893CBF100038B
:105400000B93019B092B4FF0000B69D8052B40F340
:105410003E83043B01930026019B023B032B00F2D9
:105420009986DFE813F04E044B0443042604069AE1
:1054300042F20F73CAF3130A13605AEA08031DD12C
:10544000259B002B00F07D861B4B00930833259A8B
:105450000098136015B0BDEC068BBDE8F08F18EE18
:10546000903AC3F3130351EC190B43F07F510D979E
:10547000A6F2FF36129F41F4401170E7259B002BE6
:1054800040F0DB830D4B009338E700BFAFF30080A3
:1054900061436F63A787D23FB3C8608B288AC63F3A
:1054A000FB799F501344D33F0000F07F194103085C
:1054B0000000F83F10F50208204103081C410308D2
:1054C000BE1B731E049300F19A840C900890049BF9
:1054D0005B44CDE9043B00230B93019B092B95D939
:1054E000002301264FF0FF3201930A960792099399
:1054F000079B0F9300216164204602F009F8009099
:10550000002800F02F86009B2364079B0E2B00F2DF
:10551000F980002E00F0F6800599002940F371848F
:10552000BD4B01F00F0203EBC2034FEA2118C9057E
:10553000D3E9006740F10384B84B51EC190BD3E970
:10554000082308F0DBFF41EC180B08F00F084FF0C0
:10555000030AB8F1000F13D0DFF8C09218F0010F62
:1055600009D030463946D9E9002308F09DFE0AF1FA
:10557000010A06460F465FEA680809F10809EDD1FD
:1055800051EC180B32463B4608F0B8FF41EC1A0BC1
:105590000C9B5BB157EC1A6BA14B1AEE100A002260
:1055A000394609F0F3F8002840F05285504608F0DB
:1055B00011FE53EC1A2B08F077FE9A4B002208F0EC
:1055C000BDFC079B8046A1F15079002B00F0F383CE
:1055D000059B1093079B0E930A9B002B00F0C08441
:1055E0000E9A8D4B9049DDF800A003EBC20353E9FE
:1055F0000223002008F082FF42464B4608F09CFC44
:1056000059EC1A8B41EC180B49461AEE100A09F0B6
:10561000FBF8074608F0DEFD02460B461AEE100ABC
:10562000494608F089FC30370AF8017B53EC182B07
:1056300006460F4609F0AAF8002840F055854FF0BD
:1056400000080AEE105ACDF844B055465BEC18AB92
:1056500008EE104A44462AE00E9B01349C424BDA85
:10566000724B50465946002208F01EFE6F4B002236
:1056700082468B463046394608F016FE89468046FB
:1056800009F0C2F8074608F0A5FD02460B46404661
:10569000494608F051FC303705F8017B52465B461D
:1056A00006460F4609F072F8002840F01885324689
:1056B0003B465B49002008F03FFC52465B4609F040
:1056C00065F80028C8D0109B009A0593AA4618EEEA
:1056D000104A1AEE105A02E0924500F0EA84D146D0
:1056E0001AF8013D392BF7D00133DBB28AF80030CC
:1056F000059B01330593ABE1DDF844B01AEE105A77
:1057000018EE104A139B002BC0F29480059A0E2AC3
:1057100000F39080404B03EBC203D3E90089099B5F
:10572000002B1BDA079B002B18DC40F05D83404BFD
:1057300000224046494608F0B7FD02460B4651ECB0
:10574000190B09F02DF8DDF81CA05646002800F0D2
:10575000D082099BDDF80080DF43D2E242464B460F
:1057600051EC190B08F0CAFE09F04EF806468346C4
:1057700008F030FD42464B4608F096FD0B460246C7
:1057800051EC190B08F0D8FBDDF800A0334630339C
:105790000AF8013B079B012B00F08E834FF0010BB1
:1057A00008EE105A08EE904A1D465446DA461DE0AF
:1057B00042464B463046394608F0A0FE09F024F830
:1057C000834608F007FD42464B4608F06DFD0AF19E
:1057D000010A0B4602463946304608F0ADFB0BF194
:1057E0003003AA4504F8013B00F061830F4B00220F
:1057F00008F05AFD0022002306460F4608F0BCFFC1
:105800000028D5D0A24618EE105A18EE904A059BF3
:1058100001330593D1461BE110F5020800F602089A
:105820000000F03F00001C400000E03F000024406A
:10583000000014400A9A002A3FD0019A012A40F33E
:105840009C82079B03F1FF380B9B4345C0F26E829D
:10585000A3EB0808079B002BC0F26683049A1A4446
:105860000492089A17461A4408920121204601F032
:105870007DFF064625E00123BE1B0C93731E049397
:105880007FF5B1ADC6F10103089300230493ACE5A5
:10589000584608F09FFC42464B4608F06DFF002832
:1058A0007FF489AD0BF1FF3B85E5874B00930098B2
:1058B00015B0BDEC068BBDE8F08FDDF82C80089F9D
:1058C0000A9E002F0CDD049A002A09DD0899BA42CD
:1058D0001346A8BF3B46C91AFF1AD31A089104936E
:1058E0000B9BDBB10A9B002B00F08282B8F1000F0A
:1058F0000FDD31464246204602F014F82A460146A2
:105900000646204601F060FF29460546204601F084
:1059100025FE0B9BB3EB080240F0008301212046DB
:1059200001F024FFBBF1000F824600F3B780019B1A
:10593000012B40F386814FF000080120BBF1000FDE
:1059400040F0B880049A104410F01F0000F09680D8
:10595000C0F12003042B40F3F883089BC0F11C0026
:1059600003440244089307440492089B002B05DD7E
:1059700029461A46204602F035F80546049B002BBE
:1059800005DD51461A46204602F02CF882460C9B53
:10599000002B40F03781079B002B40F31E810A9BB0
:1059A000002B40F0A180059B01330593DDF80080BA
:1059B000DDF81C90012707E0294600230A22204633
:1059C00001F0D6FD0137054651462846FFF7C0FBDA
:1059D0004F4500F1300008F8010BEDDB079A002A73
:1059E000C8BF9346009AD8BF4FF0010B03469344BB
:1059F0000027294601222046019301F0F3FF51467A
:105A0000054602F067F8002840F3A5811BF8013C29
:105A1000009A0BF1FF3B04E05A4500F0A7811BF808
:105A2000013D392B0BF10109F6D001338BF8003021
:105A30005146204601F092FD56B12FB1B74203D036
:105A40003946204601F08AFD3146204601F086FDA8
:105A50002946204601F082FD002389F80030DDE967
:105A600005231A60259B002B3FF448AC0098C3F82F
:105A7000009015B0BDEC068BBDE8F08F1C20089B94
:105A800003440893049B0344074404936DE70126F1
:105A9000C2E4C0F1200008FA00F059E401465A4679
:105AA000204601F03FFF019B012B824640F3D58148
:105AB0004FF00008DAF810300AEB8303186901F0A0
:105AC00005FEC0F120003DE71841030831460023E0
:105AD0000A22204601F04CFD0F9B002B064640F3A6
